{
  "_format": "hh-sol-artifact-1",
  "contractName": "Raffle",
  "sourceName": "contracts/Raffle.sol",
  "abi": [
    {
      "inputs": [
        {
          "internalType": "address",
          "name": "vrfCoordinatorV2",
          "type": "address"
        },
        {
          "internalType": "uint256",
          "name": "entranceFee",
          "type": "uint256"
        },
        {
          "internalType": "bytes32",
          "name": "gasLane",
          "type": "bytes32"
        },
        {
          "internalType": "uint64",
          "name": "subscriptionId",
          "type": "uint64"
        },
        {
          "internalType": "uint32",
          "name": "callbackGasLimit",
          "type": "uint32"
        },
        {
          "internalType": "uint256",
          "name": "interval",
          "type": "uint256"
        }
      ],
      "stateMutability": "nonpayable",
      "type": "constructor"
    },
    {
      "inputs": [
        {
          "internalType": "address",
          "name": "have",
          "type": "address"
        },
        {
          "internalType": "address",
          "name": "want",
          "type": "address"
        }
      ],
      "name": "OnlyCoordinatorCanFulfill",
      "type": "error"
    },
    {
      "inputs": [],
      "name": "Raffle__NotEnoughETHToEnter",
      "type": "error"
    },
    {
      "inputs": [],
      "name": "Raffle__RaffleClosed",
      "type": "error"
    },
    {
      "inputs": [],
      "name": "Raffle__TransferFailed",
      "type": "error"
    },
    {
      "inputs": [
        {
          "internalType": "uint256",
          "name": "currentBalance",
          "type": "uint256"
        },
        {
          "internalType": "uint256",
          "name": "numPlayers",
          "type": "uint256"
        },
        {
          "internalType": "uint256",
          "name": "raffleState",
          "type": "uint256"
        }
      ],
      "name": "Raffle__UpkeepNotNeeded",
      "type": "error"
    },
    {
      "anonymous": false,
      "inputs": [
        {
          "indexed": true,
          "internalType": "address",
          "name": "participant",
          "type": "address"
        }
      ],
      "name": "RaffleEntered",
      "type": "event"
    },
    {
      "anonymous": false,
      "inputs": [
        {
          "indexed": false,
          "internalType": "uint256",
          "name": "requestId",
          "type": "uint256"
        }
      ],
      "name": "RequestedRaffleWinner",
      "type": "event"
    },
    {
      "anonymous": false,
      "inputs": [
        {
          "indexed": true,
          "internalType": "address",
          "name": "winner",
          "type": "address"
        }
      ],
      "name": "WinnerPicked",
      "type": "event"
    },
    {
      "inputs": [
        {
          "internalType": "bytes",
          "name": "",
          "type": "bytes"
        }
      ],
      "name": "checkUpkeep",
      "outputs": [
        {
          "internalType": "bool",
          "name": "upkeepNeeded",
          "type": "bool"
        },
        {
          "internalType": "bytes",
          "name": "",
          "type": "bytes"
        }
      ],
      "stateMutability": "nonpayable",
      "type": "function"
    },
    {
      "inputs": [],
      "name": "enterRaffle",
      "outputs": [],
      "stateMutability": "payable",
      "type": "function"
    },
    {
      "inputs": [],
      "name": "getEntranceFee",
      "outputs": [
        {
          "internalType": "uint256",
          "name": "",
          "type": "uint256"
        }
      ],
      "stateMutability": "view",
      "type": "function"
    },
    {
      "inputs": [],
      "name": "getInterval",
      "outputs": [
        {
          "internalType": "uint256",
          "name": "",
          "type": "uint256"
        }
      ],
      "stateMutability": "view",
      "type": "function"
    },
    {
      "inputs": [],
      "name": "getLastTimeStamp",
      "outputs": [
        {
          "internalType": "uint256",
          "name": "",
          "type": "uint256"
        }
      ],
      "stateMutability": "view",
      "type": "function"
    },
    {
      "inputs": [],
      "name": "getNumWords",
      "outputs": [
        {
          "internalType": "uint256",
          "name": "",
          "type": "uint256"
        }
      ],
      "stateMutability": "pure",
      "type": "function"
    },
    {
      "inputs": [
        {
          "internalType": "uint256",
          "name": "index",
          "type": "uint256"
        }
      ],
      "name": "getParticipant",
      "outputs": [
        {
          "internalType": "address",
          "name": "",
          "type": "address"
        }
      ],
      "stateMutability": "view",
      "type": "function"
    },
    {
      "inputs": [],
      "name": "getParticipantCount",
      "outputs": [
        {
          "internalType": "uint256",
          "name": "",
          "type": "uint256"
        }
      ],
      "stateMutability": "view",
      "type": "function"
    },
    {
      "inputs": [],
      "name": "getRaffleState",
      "outputs": [
        {
          "internalType": "enum Raffle.RaffleState",
          "name": "",
          "type": "uint8"
        }
      ],
      "stateMutability": "view",
      "type": "function"
    },
    {
      "inputs": [],
      "name": "getRecentWinner",
      "outputs": [
        {
          "internalType": "address",
          "name": "",
          "type": "address"
        }
      ],
      "stateMutability": "view",
      "type": "function"
    },
    {
      "inputs": [],
      "name": "getRequestConfirmations",
      "outputs": [
        {
          "internalType": "uint256",
          "name": "",
          "type": "uint256"
        }
      ],
      "stateMutability": "pure",
      "type": "function"
    },
    {
      "inputs": [
        {
          "internalType": "bytes",
          "name": "",
          "type": "bytes"
        }
      ],
      "name": "performUpkeep",
      "outputs": [],
      "stateMutability": "nonpayable",
      "type": "function"
    },
    {
      "inputs": [
        {
          "internalType": "uint256",
          "name": "requestId",
          "type": "uint256"
        },
        {
          "internalType": "uint256[]",
          "name": "randomWords",
          "type": "uint256[]"
        }
      ],
      "name": "rawFulfillRandomWords",
      "outputs": [],
      "stateMutability": "nonpayable",
      "type": "function"
    }
  ],
  "bytecode": "0x6101606040523480156200001257600080fd5b506040516200183b3803806200183b8339818101604052810190620000389190620002a0565b858073ffffffffffffffffffffffffffffffffffffffff1660808173ffffffffffffffffffffffffffffffffffffffff1660601b81525050508460a081815250508573ffffffffffffffffffffffffffffffffffffffff1660c08173ffffffffffffffffffffffffffffffffffffffff1660601b815250508360e081815250508267ffffffffffffffff166101008167ffffffffffffffff1660c01b815250508163ffffffff166101208163ffffffff1660e01b815250506000600160146101000a81548160ff021916908360018111156200011957620001186200033c565b5b0217905550426002819055508061014081815250505050505050506200036b565b600080fd5b600073ffffffffffffffffffffffffffffffffffffffff82169050919050565b60006200016c826200013f565b9050919050565b6200017e816200015f565b81146200018a57600080fd5b50565b6000815190506200019e8162000173565b92915050565b6000819050919050565b620001b981620001a4565b8114620001c557600080fd5b50565b600081519050620001d981620001ae565b92915050565b6000819050919050565b620001f481620001df565b81146200020057600080fd5b50565b6000815190506200021481620001e9565b92915050565b600067ffffffffffffffff82169050919050565b62000239816200021a565b81146200024557600080fd5b50565b60008151905062000259816200022e565b92915050565b600063ffffffff82169050919050565b6200027a816200025f565b81146200028657600080fd5b50565b6000815190506200029a816200026f565b92915050565b60008060008060008060c08789031215620002c057620002bf6200013a565b5b6000620002d089828a016200018d565b9650506020620002e389828a01620001c8565b9550506040620002f689828a0162000203565b94505060606200030989828a0162000248565b93505060806200031c89828a0162000289565b92505060a06200032f89828a01620001c8565b9150509295509295509295565b7f4e487b7100000000000000000000000000000000000000000000000000000000600052602160045260246000fd5b60805160601c60a05160c05160601c60e0516101005160c01c6101205160e01c61014051611454620003e76000396000818161083c01526108aa015260006106e2015260006106bf0152600061069e015260006106620152600081816102fa015261043e01526000818161037e01526103d201526114546000f3fe6080604052600436106100c25760003560e01c8063473f1ddc1161007f5780636e04ff0d116100595780636e04ff0d1461023757806391ad27b414610275578063ad605729146102a0578063c1c244e8146102cb576100c2565b8063473f1ddc146101b657806353a2c19a146101e15780635f1b0fd81461020c576100c2565b806309bc33a7146100c7578063115cbaf5146100f25780631b9db2ef1461011d5780631fe543e31461015a5780632cfcc539146101835780634585e33b1461018d575b600080fd5b3480156100d357600080fd5b506100dc6102f6565b6040516100e99190610bd5565b60405180910390f35b3480156100fe57600080fd5b5061010761031e565b6040516101149190610c67565b60405180910390f35b34801561012957600080fd5b50610144600480360381019061013f9190610cc2565b610335565b6040516101519190610d30565b60405180910390f35b34801561016657600080fd5b50610181600480360381019061017c9190610ea4565b61037c565b005b61018b61043c565b005b34801561019957600080fd5b506101b460048036038101906101af9190610f5b565b6105ab565b005b3480156101c257600080fd5b506101cb6107b4565b6040516101d89190610d30565b60405180910390f35b3480156101ed57600080fd5b506101f66107de565b6040516102039190610bd5565b60405180910390f35b34801561021857600080fd5b506102216107ed565b60405161022e9190610bd5565b60405180910390f35b34801561024357600080fd5b5061025e6004803603810190610259919061105d565b6107fa565b60405161026c929190611149565b60405180910390f35b34801561028157600080fd5b5061028a6108a6565b6040516102979190610bd5565b60405180910390f35b3480156102ac57600080fd5b506102b56108ce565b6040516102c29190610bd5565b60405180910390f35b3480156102d757600080fd5b506102e06108da565b6040516102ed9190610bd5565b60405180910390f35b60007f0000000000000000000000000000000000000000000000000000000000000000905090565b6000600160149054906101000a900460ff16905090565b600080828154811061034a57610349611179565b5b9060005260206000200160009054906101000a900473ffffffffffffffffffffffffffffffffffffffff169050919050565b7f000000000000000000000000000000000000000000000000000000000000000073ffffffffffffffffffffffffffffffffffffffff163373ffffffffffffffffffffffffffffffffffffffff161461042e57337f00000000000000000000000000000000000000000000000000000000000000006040517f1cf993f40000000000000000000000000000000000000000000000000000000081526004016104259291906111a8565b60405180910390fd5b61043882826108e4565b5050565b7f0000000000000000000000000000000000000000000000000000000000000000341015610496576040517f84a91fbe00000000000000000000000000000000000000000000000000000000815260040160405180910390fd5b600060018111156104aa576104a9610bf0565b5b600160149054906101000a900460ff1660018111156104cc576104cb610bf0565b5b14610503576040517f2ea3cbf200000000000000000000000000000000000000000000000000000000815260040160405180910390fd5b6000339080600181540180825580915050600190039060005260206000200160009091909190916101000a81548173ffffffffffffffffffffffffffffffffffffffff021916908373ffffffffffffffffffffffffffffffffffffffff1602179055503373ffffffffffffffffffffffffffffffffffffffff167f634f3211e3a4e43fee5a21ad9f87ca153b300fc78b1c557a2057dbe9c63bcb4760405160405180910390a2565b60006105c5604051806020016040528060008152506107fa565b509050806106345747600080549050600160149054906101000a900460ff1660018111156105f6576105f5610bf0565b5b6040517f584327aa00000000000000000000000000000000000000000000000000000000815260040161062b939291906111d1565b60405180910390fd5b60018060146101000a81548160ff0219169083600181111561065957610658610bf0565b5b021790555060007f000000000000000000000000000000000000000000000000000000000000000073ffffffffffffffffffffffffffffffffffffffff16635d3b1d307f00000000000000000000000000000000000000000000000000000000000000007f000000000000000000000000000000000000000000000000000000000000000060037f000000000000000000000000000000000000000000000000000000000000000060016040518663ffffffff1660e01b8152600401610723959493929190611280565b602060405180830381600087803b15801561073d57600080fd5b505af1158015610751573d6000803e3d6000fd5b505050506040513d601f19601f8201168201806040525081019061077591906112e8565b90507fcd6e45c8998311cab7e9d4385596cac867e20a0587194b954fa3a731c93ce78b816040516107a69190610bd5565b60405180910390a150505050565b6000600160009054906101000a900473ffffffffffffffffffffffffffffffffffffffff16905090565b6000600163ffffffff16905090565b6000600361ffff16905090565b60006060600080600181111561081357610812610bf0565b5b600160149054906101000a900460ff16600181111561083557610834610bf0565b5b14905060007f0000000000000000000000000000000000000000000000000000000000000000600254426108699190611344565b119050600080600080549050119050600080471190508380156108895750825b80156108925750815b801561089b5750805b955050505050915091565b60007f0000000000000000000000000000000000000000000000000000000000000000905090565b60008080549050905090565b6000600254905090565b60008080549050826000815181106108ff576108fe611179565b5b602002602001015161091191906113a7565b9050600080828154811061092857610927611179565b5b9060005260206000200160009054906101000a900473ffffffffffffffffffffffffffffffffffffffff16905080600160006101000a81548173ffffffffffffffffffffffffffffffffffffffff021916908373ffffffffffffffffffffffffffffffffffffffff1602179055506000600160146101000a81548160ff021916908360018111156109bc576109bb610bf0565b5b0217905550600067ffffffffffffffff8111156109dc576109db610d61565b5b604051908082528060200260200182016040528015610a0a5781602001602082028036833780820191505090505b5060009080519060200190610a20929190610b15565b504260028190555060008173ffffffffffffffffffffffffffffffffffffffff1647604051610a4e90611409565b60006040518083038185875af1925050503d8060008114610a8b576040519150601f19603f3d011682016040523d82523d6000602084013e610a90565b606091505b5050905080610acb576040517fa1d04b3900000000000000000000000000000000000000000000000000000000815260040160405180910390fd5b8173ffffffffffffffffffffffffffffffffffffffff167f5b690ec4a06fe979403046eaeea5b3ce38524683c3001f662c8b5a829632f7df60405160405180910390a25050505050565b828054828255906000526020600020908101928215610b8e579160200282015b82811115610b8d5782518260006101000a81548173ffffffffffffffffffffffffffffffffffffffff021916908373ffffffffffffffffffffffffffffffffffffffff16021790555091602001919060010190610b35565b5b509050610b9b9190610b9f565b5090565b5b80821115610bb8576000816000905550600101610ba0565b5090565b6000819050919050565b610bcf81610bbc565b82525050565b6000602082019050610bea6000830184610bc6565b92915050565b7f4e487b7100000000000000000000000000000000000000000000000000000000600052602160045260246000fd5b60028110610c3057610c2f610bf0565b5b50565b6000819050610c4182610c1f565b919050565b6000610c5182610c33565b9050919050565b610c6181610c46565b82525050565b6000602082019050610c7c6000830184610c58565b92915050565b6000604051905090565b600080fd5b600080fd5b610c9f81610bbc565b8114610caa57600080fd5b50565b600081359050610cbc81610c96565b92915050565b600060208284031215610cd857610cd7610c8c565b5b6000610ce684828501610cad565b91505092915050565b600073ffffffffffffffffffffffffffffffffffffffff82169050919050565b6000610d1a82610cef565b9050919050565b610d2a81610d0f565b82525050565b6000602082019050610d456000830184610d21565b92915050565b600080fd5b6000601f19601f8301169050919050565b7f4e487b7100000000000000000000000000000000000000000000000000000000600052604160045260246000fd5b610d9982610d50565b810181811067ffffffffffffffff82111715610db857610db7610d61565b5b80604052505050565b6000610dcb610c82565b9050610dd78282610d90565b919050565b600067ffffffffffffffff821115610df757610df6610d61565b5b602082029050602081019050919050565b600080fd5b6000610e20610e1b84610ddc565b610dc1565b90508083825260208201905060208402830185811115610e4357610e42610e08565b5b835b81811015610e6c5780610e588882610cad565b845260208401935050602081019050610e45565b5050509392505050565b600082601f830112610e8b57610e8a610d4b565b5b8135610e9b848260208601610e0d565b91505092915050565b60008060408385031215610ebb57610eba610c8c565b5b6000610ec985828601610cad565b925050602083013567ffffffffffffffff811115610eea57610ee9610c91565b5b610ef685828601610e76565b9150509250929050565b600080fd5b60008083601f840112610f1b57610f1a610d4b565b5b8235905067ffffffffffffffff811115610f3857610f37610f00565b5b602083019150836001820283011115610f5457610f53610e08565b5b9250929050565b60008060208385031215610f7257610f71610c8c565b5b600083013567ffffffffffffffff811115610f9057610f8f610c91565b5b610f9c85828601610f05565b92509250509250929050565b600080fd5b600067ffffffffffffffff821115610fc857610fc7610d61565b5b610fd182610d50565b9050602081019050919050565b82818337600083830152505050565b6000611000610ffb84610fad565b610dc1565b90508281526020810184848401111561101c5761101b610fa8565b5b611027848285610fde565b509392505050565b600082601f83011261104457611043610d4b565b5b8135611054848260208601610fed565b91505092915050565b60006020828403121561107357611072610c8c565b5b600082013567ffffffffffffffff81111561109157611090610c91565b5b61109d8482850161102f565b91505092915050565b60008115159050919050565b6110bb816110a6565b82525050565b600081519050919050565b600082825260208201905092915050565b60005b838110156110fb5780820151818401526020810190506110e0565b8381111561110a576000848401525b50505050565b600061111b826110c1565b61112581856110cc565b93506111358185602086016110dd565b61113e81610d50565b840191505092915050565b600060408201905061115e60008301856110b2565b81810360208301526111708184611110565b90509392505050565b7f4e487b7100000000000000000000000000000000000000000000000000000000600052603260045260246000fd5b60006040820190506111bd6000830185610d21565b6111ca6020830184610d21565b9392505050565b60006060820190506111e66000830186610bc6565b6111f36020830185610bc6565b6112006040830184610bc6565b949350505050565b6000819050919050565b61121b81611208565b82525050565b600067ffffffffffffffff82169050919050565b61123e81611221565b82525050565b600061ffff82169050919050565b61125b81611244565b82525050565b600063ffffffff82169050919050565b61127a81611261565b82525050565b600060a0820190506112956000830188611212565b6112a26020830187611235565b6112af6040830186611252565b6112bc6060830185611271565b6112c96080830184611271565b9695505050505050565b6000815190506112e281610c96565b92915050565b6000602082840312156112fe576112fd610c8c565b5b600061130c848285016112d3565b91505092915050565b7f4e487b7100000000000000000000000000000000000000000000000000000000600052601160045260246000fd5b600061134f82610bbc565b915061135a83610bbc565b92508282101561136d5761136c611315565b5b828203905092915050565b7f4e487b7100000000000000000000000000000000000000000000000000000000600052601260045260246000fd5b60006113b282610bbc565b91506113bd83610bbc565b9250826113cd576113cc611378565b5b828206905092915050565b600081905092915050565b50565b60006113f36000836113d8565b91506113fe826113e3565b600082019050919050565b6000611414826113e6565b915081905091905056fea264697066735822122043bfacee3764c3bb9c84575c5f13678688d5c4705d271affbfc1b0e0c52e85b064736f6c63430008080033",
  "linkReferences": {},
  "deployedLinkReferences": {}
}