{
  "address": "0xa513E6E4b8f2a923D98304ec87F64353C4D5C853",
  "abi": [
    {
      "inputs": [
        {
          "internalType": "address",
          "name": "priceFeedAddress",
          "type": "address"
        },
        {
          "internalType": "string",
          "name": "lowSvg",
          "type": "string"
        },
        {
          "internalType": "string",
          "name": "highSvg",
          "type": "string"
        }
      ],
      "stateMutability": "nonpayable",
      "type": "constructor"
    },
    {
      "anonymous": false,
      "inputs": [
        {
          "indexed": true,
          "internalType": "address",
          "name": "owner",
          "type": "address"
        },
        {
          "indexed": true,
          "internalType": "address",
          "name": "approved",
          "type": "address"
        },
        {
          "indexed": true,
          "internalType": "uint256",
          "name": "tokenId",
          "type": "uint256"
        }
      ],
      "name": "Approval",
      "type": "event"
    },
    {
      "anonymous": false,
      "inputs": [
        {
          "indexed": true,
          "internalType": "address",
          "name": "owner",
          "type": "address"
        },
        {
          "indexed": true,
          "internalType": "address",
          "name": "operator",
          "type": "address"
        },
        {
          "indexed": false,
          "internalType": "bool",
          "name": "approved",
          "type": "bool"
        }
      ],
      "name": "ApprovalForAll",
      "type": "event"
    },
    {
      "anonymous": false,
      "inputs": [
        {
          "indexed": false,
          "internalType": "uint256",
          "name": "tokenId",
          "type": "uint256"
        },
        {
          "indexed": false,
          "internalType": "int256",
          "name": "highValue",
          "type": "int256"
        }
      ],
      "name": "CreatedNFT",
      "type": "event"
    },
    {
      "anonymous": false,
      "inputs": [
        {
          "indexed": true,
          "internalType": "address",
          "name": "previousOwner",
          "type": "address"
        },
        {
          "indexed": true,
          "internalType": "address",
          "name": "newOwner",
          "type": "address"
        }
      ],
      "name": "OwnershipTransferred",
      "type": "event"
    },
    {
      "anonymous": false,
      "inputs": [
        {
          "indexed": true,
          "internalType": "address",
          "name": "from",
          "type": "address"
        },
        {
          "indexed": true,
          "internalType": "address",
          "name": "to",
          "type": "address"
        },
        {
          "indexed": true,
          "internalType": "uint256",
          "name": "tokenId",
          "type": "uint256"
        }
      ],
      "name": "Transfer",
      "type": "event"
    },
    {
      "inputs": [
        {
          "internalType": "address",
          "name": "to",
          "type": "address"
        },
        {
          "internalType": "uint256",
          "name": "tokenId",
          "type": "uint256"
        }
      ],
      "name": "approve",
      "outputs": [],
      "stateMutability": "nonpayable",
      "type": "function"
    },
    {
      "inputs": [
        {
          "internalType": "address",
          "name": "owner",
          "type": "address"
        }
      ],
      "name": "balanceOf",
      "outputs": [
        {
          "internalType": "uint256",
          "name": "",
          "type": "uint256"
        }
      ],
      "stateMutability": "view",
      "type": "function"
    },
    {
      "inputs": [
        {
          "internalType": "uint256",
          "name": "tokenId",
          "type": "uint256"
        }
      ],
      "name": "getApproved",
      "outputs": [
        {
          "internalType": "address",
          "name": "",
          "type": "address"
        }
      ],
      "stateMutability": "view",
      "type": "function"
    },
    {
      "inputs": [],
      "name": "getHighImageURI",
      "outputs": [
        {
          "internalType": "string",
          "name": "",
          "type": "string"
        }
      ],
      "stateMutability": "view",
      "type": "function"
    },
    {
      "inputs": [],
      "name": "getLowImageURI",
      "outputs": [
        {
          "internalType": "string",
          "name": "",
          "type": "string"
        }
      ],
      "stateMutability": "view",
      "type": "function"
    },
    {
      "inputs": [],
      "name": "getPriceFeedAddress",
      "outputs": [
        {
          "internalType": "address",
          "name": "",
          "type": "address"
        }
      ],
      "stateMutability": "view",
      "type": "function"
    },
    {
      "inputs": [],
      "name": "getTokenCounter",
      "outputs": [
        {
          "internalType": "uint256",
          "name": "",
          "type": "uint256"
        }
      ],
      "stateMutability": "view",
      "type": "function"
    },
    {
      "inputs": [
        {
          "internalType": "uint256",
          "name": "tokenId",
          "type": "uint256"
        }
      ],
      "name": "getTokenIdToHighValue",
      "outputs": [
        {
          "internalType": "int256",
          "name": "",
          "type": "int256"
        }
      ],
      "stateMutability": "view",
      "type": "function"
    },
    {
      "inputs": [],
      "name": "getUsdEthPriceFeed",
      "outputs": [
        {
          "internalType": "int256",
          "name": "",
          "type": "int256"
        }
      ],
      "stateMutability": "view",
      "type": "function"
    },
    {
      "inputs": [
        {
          "internalType": "address",
          "name": "owner",
          "type": "address"
        },
        {
          "internalType": "address",
          "name": "operator",
          "type": "address"
        }
      ],
      "name": "isApprovedForAll",
      "outputs": [
        {
          "internalType": "bool",
          "name": "",
          "type": "bool"
        }
      ],
      "stateMutability": "view",
      "type": "function"
    },
    {
      "inputs": [
        {
          "internalType": "int256",
          "name": "highValue",
          "type": "int256"
        }
      ],
      "name": "mintNft",
      "outputs": [],
      "stateMutability": "payable",
      "type": "function"
    },
    {
      "inputs": [],
      "name": "name",
      "outputs": [
        {
          "internalType": "string",
          "name": "",
          "type": "string"
        }
      ],
      "stateMutability": "view",
      "type": "function"
    },
    {
      "inputs": [],
      "name": "owner",
      "outputs": [
        {
          "internalType": "address",
          "name": "",
          "type": "address"
        }
      ],
      "stateMutability": "view",
      "type": "function"
    },
    {
      "inputs": [
        {
          "internalType": "uint256",
          "name": "tokenId",
          "type": "uint256"
        }
      ],
      "name": "ownerOf",
      "outputs": [
        {
          "internalType": "address",
          "name": "",
          "type": "address"
        }
      ],
      "stateMutability": "view",
      "type": "function"
    },
    {
      "inputs": [],
      "name": "renounceOwnership",
      "outputs": [],
      "stateMutability": "nonpayable",
      "type": "function"
    },
    {
      "inputs": [
        {
          "internalType": "address",
          "name": "from",
          "type": "address"
        },
        {
          "internalType": "address",
          "name": "to",
          "type": "address"
        },
        {
          "internalType": "uint256",
          "name": "tokenId",
          "type": "uint256"
        }
      ],
      "name": "safeTransferFrom",
      "outputs": [],
      "stateMutability": "nonpayable",
      "type": "function"
    },
    {
      "inputs": [
        {
          "internalType": "address",
          "name": "from",
          "type": "address"
        },
        {
          "internalType": "address",
          "name": "to",
          "type": "address"
        },
        {
          "internalType": "uint256",
          "name": "tokenId",
          "type": "uint256"
        },
        {
          "internalType": "bytes",
          "name": "data",
          "type": "bytes"
        }
      ],
      "name": "safeTransferFrom",
      "outputs": [],
      "stateMutability": "nonpayable",
      "type": "function"
    },
    {
      "inputs": [
        {
          "internalType": "address",
          "name": "operator",
          "type": "address"
        },
        {
          "internalType": "bool",
          "name": "approved",
          "type": "bool"
        }
      ],
      "name": "setApprovalForAll",
      "outputs": [],
      "stateMutability": "nonpayable",
      "type": "function"
    },
    {
      "inputs": [
        {
          "internalType": "bytes4",
          "name": "interfaceId",
          "type": "bytes4"
        }
      ],
      "name": "supportsInterface",
      "outputs": [
        {
          "internalType": "bool",
          "name": "",
          "type": "bool"
        }
      ],
      "stateMutability": "view",
      "type": "function"
    },
    {
      "inputs": [
        {
          "internalType": "string",
          "name": "svg",
          "type": "string"
        }
      ],
      "name": "svgToImageURI",
      "outputs": [
        {
          "internalType": "string",
          "name": "",
          "type": "string"
        }
      ],
      "stateMutability": "pure",
      "type": "function"
    },
    {
      "inputs": [],
      "name": "symbol",
      "outputs": [
        {
          "internalType": "string",
          "name": "",
          "type": "string"
        }
      ],
      "stateMutability": "view",
      "type": "function"
    },
    {
      "inputs": [
        {
          "internalType": "uint256",
          "name": "tokenId",
          "type": "uint256"
        }
      ],
      "name": "tokenURI",
      "outputs": [
        {
          "internalType": "string",
          "name": "",
          "type": "string"
        }
      ],
      "stateMutability": "view",
      "type": "function"
    },
    {
      "inputs": [
        {
          "internalType": "address",
          "name": "from",
          "type": "address"
        },
        {
          "internalType": "address",
          "name": "to",
          "type": "address"
        },
        {
          "internalType": "uint256",
          "name": "tokenId",
          "type": "uint256"
        }
      ],
      "name": "transferFrom",
      "outputs": [],
      "stateMutability": "nonpayable",
      "type": "function"
    },
    {
      "inputs": [
        {
          "internalType": "address",
          "name": "newOwner",
          "type": "address"
        }
      ],
      "name": "transferOwnership",
      "outputs": [],
      "stateMutability": "nonpayable",
      "type": "function"
    }
  ],
  "transactionHash": "0x7c1be25ecc40b24d5413160c8903181e63cb1de8d90f48175397c02a3cd6a4fc",
  "args": [
    "0xe7f1725E7734CE288F8367e1Bb143E90bb3F0512",
    "<?xml version=\"1.0\" standalone=\"no\"?>\n<svg width=\"1024px\" height=\"1024px\" viewBox=\"0 0 1024 1024\" xmlns=\"http://www.w3.org/2000/svg\">\n  <path fill=\"#333\" d=\"M512 64C264.6 64 64 264.6 64 512s200.6 448 448 448 448-200.6 448-448S759.4 64 512 64zm0 820c-205.4 0-372-166.6-372-372s166.6-372 372-372 372 166.6 372 372-166.6 372-372 372z\"/>\n  <path fill=\"#E6E6E6\" d=\"M512 140c-205.4 0-372 166.6-372 372s166.6 372 372 372 372-166.6 372-372-166.6-372-372-372zM288 421a48.01 48.01 0 0 1 96 0 48.01 48.01 0 0 1-96 0zm376 272h-48.1c-4.2 0-7.8-3.2-8.1-7.4C604 636.1 562.5 597 512 597s-92.1 39.1-95.8 88.6c-.3 4.2-3.9 7.4-8.1 7.4H360a8 8 0 0 1-8-8.4c4.4-84.3 74.5-151.6 160-151.6s155.6 67.3 160 151.6a8 8 0 0 1-8 8.4zm24-224a48.01 48.01 0 0 1 0-96 48.01 48.01 0 0 1 0 96z\"/>\n  <path fill=\"#333\" d=\"M288 421a48 48 0 1 0 96 0 48 48 0 1 0-96 0zm224 112c-85.5 0-155.6 67.3-160 151.6a8 8 0 0 0 8 8.4h48.1c4.2 0 7.8-3.2 8.1-7.4 3.7-49.5 45.3-88.6 95.8-88.6s92 39.1 95.8 88.6c.3 4.2 3.9 7.4 8.1 7.4H664a8 8 0 0 0 8-8.4C667.6 600.3 597.5 533 512 533zm128-112a48 48 0 1 0 96 0 48 48 0 1 0-96 0z\"/>\n</svg>",
    "<svg viewBox=\"0 0 200 200\" width=\"400\"  height=\"400\" xmlns=\"http://www.w3.org/2000/svg\">\n  <circle cx=\"100\" cy=\"100\" fill=\"yellow\" r=\"78\" stroke=\"black\" stroke-width=\"3\"/>\n  <g class=\"eyes\">\n    <circle cx=\"61\" cy=\"82\" r=\"12\"/>\n    <circle cx=\"127\" cy=\"82\" r=\"12\"/>\n  </g>\n  <path d=\"m136.81 116.53c.69 26.17-64.11 42-81.52-.73\" style=\"fill:none; stroke: black; stroke-width: 3;\"/>\n</svg>"
  ],
  "numDeployments": 1,
  "solcInputHash": "354158b6fb12608417f9440920db6899",
  "bytecode": "0x60a06040523480156200001157600080fd5b506040516200400738038062004007833981810160405281019062000037919062000663565b6040518060400160405280600d81526020017f44796e616d69635376674e6674000000000000000000000000000000000000008152506040518060400160405280600381526020017f44534e00000000000000000000000000000000000000000000000000000000008152508160009081620000b4919062000948565b508060019081620000c6919062000948565b505050620000e9620000dd6200017260201b60201c565b6200017a60201b60201c565b600060078190555062000102826200024060201b60201c565b6008908162000112919062000948565b5062000124816200024060201b60201c565b6009908162000134919062000948565b508273ffffffffffffffffffffffffffffffffffffffff1660808173ffffffffffffffffffffffffffffffffffffffff168152505050505062000bce565b600033905090565b6000600660009054906101000a900473ffffffffffffffffffffffffffffffffffffffff16905081600660006101000a81548173ffffffffffffffffffffffffffffffffffffffff021916908373ffffffffffffffffffffffffffffffffffffffff1602179055508173ffffffffffffffffffffffffffffffffffffffff168173ffffffffffffffffffffffffffffffffffffffff167f8be0079c531659141344cd1fd0a4f28419497f9722a3daafe3b4186f6b6457e060405160405180910390a35050565b606060006200027b836040516020016200025b919062000a71565b604051602081830303815290604052620002de60201b620011581760201c565b90506040518060400160405280601a81526020017f646174613a696d6167652f7376672b786d6c3b6261736536342c00000000000081525081604051602001620002c792919062000a8a565b604051602081830303815290604052915050919050565b60606000825103620003025760405180602001604052806000815250905062000466565b600060405180606001604052806040815260200162003fc7604091399050600060036002855162000334919062000ae1565b62000340919062000b4b565b60046200034e919062000b83565b9050600060208262000361919062000ae1565b67ffffffffffffffff8111156200037d576200037c620004ff565b5b6040519080825280601f01601f191660200182016040528015620003b05781602001600182028036833780820191505090505b509050818152600183018586518101602084015b8183101562000421576003830192508251603f8160121c168501518253600182019150603f81600c1c168501518253600182019150603f8160061c168501518253600182019150603f8116850151825360018201915050620003c4565b6003895106600181146200043e57600281146200044f576200045a565b613d3d60f01b60028303526200045a565b603d60f81b60018303525b50505050508093505050505b919050565b6000604051905090565b600080fd5b600080fd5b600073ffffffffffffffffffffffffffffffffffffffff82169050919050565b6000620004ac826200047f565b9050919050565b620004be816200049f565b8114620004ca57600080fd5b50565b600081519050620004de81620004b3565b92915050565b600080fd5b600080fd5b6000601f19601f8301169050919050565b7f4e487b7100000000000000000000000000000000000000000000000000000000600052604160045260246000fd5b6200053982620004ee565b810181811067ffffffffffffffff821117156200055b576200055a620004ff565b5b80604052505050565b6000620005706200046b565b90506200057e82826200052e565b919050565b600067ffffffffffffffff821115620005a157620005a0620004ff565b5b620005ac82620004ee565b9050602081019050919050565b60005b83811015620005d9578082015181840152602081019050620005bc565b60008484015250505050565b6000620005fc620005f68462000583565b62000564565b9050828152602081018484840111156200061b576200061a620004e9565b5b62000628848285620005b9565b509392505050565b600082601f830112620006485762000647620004e4565b5b81516200065a848260208601620005e5565b91505092915050565b6000806000606084860312156200067f576200067e62000475565b5b60006200068f86828701620004cd565b935050602084015167ffffffffffffffff811115620006b357620006b26200047a565b5b620006c18682870162000630565b925050604084015167ffffffffffffffff811115620006e557620006e46200047a565b5b620006f38682870162000630565b9150509250925092565b600081519050919050565b7f4e487b7100000000000000000000000000000000000000000000000000000000600052602260045260246000fd5b600060028204905060018216806200075057607f821691505b60208210810362000766576200076562000708565b5b50919050565b60008190508160005260206000209050919050565b60006020601f8301049050919050565b600082821b905092915050565b600060088302620007d07fffffffffffffffffffffffffffffffffffffffffffffffffffffffffffffffff8262000791565b620007dc868362000791565b95508019841693508086168417925050509392505050565b6000819050919050565b6000819050919050565b600062000829620008236200081d84620007f4565b620007fe565b620007f4565b9050919050565b6000819050919050565b620008458362000808565b6200085d620008548262000830565b8484546200079e565b825550505050565b600090565b6200087462000865565b620008818184846200083a565b505050565b5b81811015620008a9576200089d6000826200086a565b60018101905062000887565b5050565b601f821115620008f857620008c2816200076c565b620008cd8462000781565b81016020851015620008dd578190505b620008f5620008ec8562000781565b83018262000886565b50505b505050565b600082821c905092915050565b60006200091d60001984600802620008fd565b1980831691505092915050565b60006200093883836200090a565b9150826002028217905092915050565b6200095382620006fd565b67ffffffffffffffff8111156200096f576200096e620004ff565b5b6200097b825462000737565b62000988828285620008ad565b600060209050601f831160018114620009c05760008415620009ab578287015190505b620009b785826200092a565b86555062000a27565b601f198416620009d0866200076c565b60005b82811015620009fa57848901518255600182019150602085019450602081019050620009d3565b8683101562000a1a578489015162000a16601f8916826200090a565b8355505b6001600288020188555050505b505050505050565b600081905092915050565b600062000a4782620006fd565b62000a53818562000a2f565b935062000a65818560208601620005b9565b80840191505092915050565b600062000a7f828462000a3a565b915081905092915050565b600062000a98828562000a3a565b915062000aa6828462000a3a565b91508190509392505050565b7f4e487b7100000000000000000000000000000000000000000000000000000000600052601160045260246000fd5b600062000aee82620007f4565b915062000afb83620007f4565b925082820190508082111562000b165762000b1562000ab2565b5b92915050565b7f4e487b7100000000000000000000000000000000000000000000000000000000600052601260045260246000fd5b600062000b5882620007f4565b915062000b6583620007f4565b92508262000b785762000b7762000b1c565b5b828204905092915050565b600062000b9082620007f4565b915062000b9d83620007f4565b925082820262000bad81620007f4565b9150828204841483151762000bc75762000bc662000ab2565b5b5092915050565b6080516133d662000bf16000396000818161088e0152610a2201526133d66000f3fe60806040526004361061014b5760003560e01c806370a08231116100b6578063c0a8d5ac1161006f578063c0a8d5ac14610483578063c87b56dd146104ae578063d77843c5146104eb578063e985e9c514610516578063f28a573614610553578063f2fde38b146105905761014b565b806370a0823114610387578063715018a6146103c45780638da5cb5b146103db57806395d89b4114610406578063a22cb46514610431578063b88d4fde1461045a5761014b565b806323b872dd1161010857806323b872dd1461026557806330d871c61461028e5780633e3be8f1146102cb57806342842e0e146102f65780636352211e1461031f5780636e02007d1461035c5761014b565b806301ffc9a71461015057806306fdde031461018d578063081812fc146101b8578063095ea7b3146101f55780630f0f30b21461021e5780631e93081214610249575b600080fd5b34801561015c57600080fd5b5061017760048036038101906101729190611f68565b6105b9565b6040516101849190611fb0565b60405180910390f35b34801561019957600080fd5b506101a261069b565b6040516101af919061205b565b60405180910390f35b3480156101c457600080fd5b506101df60048036038101906101da91906120b3565b61072d565b6040516101ec9190612121565b60405180910390f35b34801561020157600080fd5b5061021c60048036038101906102179190612168565b610773565b005b34801561022a57600080fd5b5061023361088a565b6040516102409190612121565b60405180910390f35b610263600480360381019061025e91906121de565b6108b2565b005b34801561027157600080fd5b5061028c6004803603810190610287919061220b565b610930565b005b34801561029a57600080fd5b506102b560048036038101906102b09190612393565b610990565b6040516102c2919061205b565b60405180910390f35b3480156102d757600080fd5b506102e0610a1d565b6040516102ed91906123eb565b60405180910390f35b34801561030257600080fd5b5061031d6004803603810190610318919061220b565b610abc565b005b34801561032b57600080fd5b50610346600480360381019061034191906120b3565b610adc565b6040516103539190612121565b60405180910390f35b34801561036857600080fd5b50610371610b8d565b60405161037e9190612415565b60405180910390f35b34801561039357600080fd5b506103ae60048036038101906103a99190612430565b610b97565b6040516103bb9190612415565b60405180910390f35b3480156103d057600080fd5b506103d9610c4e565b005b3480156103e757600080fd5b506103f0610c62565b6040516103fd9190612121565b60405180910390f35b34801561041257600080fd5b5061041b610c8c565b604051610428919061205b565b60405180910390f35b34801561043d57600080fd5b5061045860048036038101906104539190612489565b610d1e565b005b34801561046657600080fd5b50610481600480360381019061047c919061256a565b610d34565b005b34801561048f57600080fd5b50610498610d96565b6040516104a5919061205b565b60405180910390f35b3480156104ba57600080fd5b506104d560048036038101906104d091906120b3565b610e28565b6040516104e2919061205b565b60405180910390f35b3480156104f757600080fd5b50610500610f92565b60405161050d919061205b565b60405180910390f35b34801561052257600080fd5b5061053d600480360381019061053891906125ed565b611024565b60405161054a9190611fb0565b60405180910390f35b34801561055f57600080fd5b5061057a600480360381019061057591906120b3565b6110b8565b60405161058791906123eb565b60405180910390f35b34801561059c57600080fd5b506105b760048036038101906105b29190612430565b6110d5565b005b60007f80ac58cd000000000000000000000000000000000000000000000000000000007bffffffffffffffffffffffffffffffffffffffffffffffffffffffff1916827bffffffffffffffffffffffffffffffffffffffffffffffffffffffff1916148061068457507f5b5e139f000000000000000000000000000000000000000000000000000000007bffffffffffffffffffffffffffffffffffffffffffffffffffffffff1916827bffffffffffffffffffffffffffffffffffffffffffffffffffffffff1916145b806106945750610693826112d0565b5b9050919050565b6060600080546106aa9061265c565b80601f01602080910402602001604051908101604052809291908181526020018280546106d69061265c565b80156107235780601f106106f857610100808354040283529160200191610723565b820191906000526020600020905b81548152906001019060200180831161070657829003601f168201915b5050505050905090565b60006107388261133a565b6004600083815260200190815260200160002060009054906101000a900473ffffffffffffffffffffffffffffffffffffffff169050919050565b600061077e82610adc565b90508073ffffffffffffffffffffffffffffffffffffffff168373ffffffffffffffffffffffffffffffffffffffff16036107ee576040517f08c379a00000000000000000000000000000000000000000000000000000000081526004016107e5906126ff565b60405180910390fd5b8073ffffffffffffffffffffffffffffffffffffffff1661080d611385565b73ffffffffffffffffffffffffffffffffffffffff16148061083c575061083b81610836611385565b611024565b5b61087b576040517f08c379a000000000000000000000000000000000000000000000000000000000815260040161087290612791565b60405180910390fd5b610885838361138d565b505050565b60007f0000000000000000000000000000000000000000000000000000000000000000905090565b80600a60006007548152602001908152602001600020819055506108d833600754611446565b6001600760008282546108eb91906127e0565b925050819055507f882d3b5a729a8bb95cf6c0083c99b42ecd9637123d4425bd7b768877fd8af8b060075482604051610925929190612814565b60405180910390a150565b61094161093b611385565b82611464565b610980576040517f08c379a0000000000000000000000000000000000000000000000000000000008152600401610977906128af565b60405180910390fd5b61098b8383836114f9565b505050565b606060006109bc836040516020016109a8919061290b565b604051602081830303815290604052611158565b90506040518060400160405280601a81526020017f646174613a696d6167652f7376672b786d6c3b6261736536342c00000000000081525081604051602001610a06929190612922565b604051602081830303815290604052915050919050565b6000807f000000000000000000000000000000000000000000000000000000000000000073ffffffffffffffffffffffffffffffffffffffff1663feaf968c6040518163ffffffff1660e01b815260040160a060405180830381865afa158015610a8b573d6000803e3d6000fd5b505050506040513d601f19601f82011682018060405250810190610aaf91906129b2565b5050509150508091505090565b610ad783838360405180602001604052806000815250610d34565b505050565b6000806002600084815260200190815260200160002060009054906101000a900473ffffffffffffffffffffffffffffffffffffffff169050600073ffffffffffffffffffffffffffffffffffffffff168173ffffffffffffffffffffffffffffffffffffffff1603610b84576040517f08c379a0000000000000000000000000000000000000000000000000000000008152600401610b7b90612a79565b60405180910390fd5b80915050919050565b6000600754905090565b60008073ffffffffffffffffffffffffffffffffffffffff168273ffffffffffffffffffffffffffffffffffffffff1603610c07576040517f08c379a0000000000000000000000000000000000000000000000000000000008152600401610bfe90612b0b565b60405180910390fd5b600360008373ffffffffffffffffffffffffffffffffffffffff1673ffffffffffffffffffffffffffffffffffffffff168152602001908152602001600020549050919050565b610c5661175f565b610c6060006117dd565b565b6000600660009054906101000a900473ffffffffffffffffffffffffffffffffffffffff16905090565b606060018054610c9b9061265c565b80601f0160208091040260200160405190810160405280929190818152602001828054610cc79061265c565b8015610d145780601f10610ce957610100808354040283529160200191610d14565b820191906000526020600020905b815481529060010190602001808311610cf757829003601f168201915b5050505050905090565b610d30610d29611385565b83836118a3565b5050565b610d45610d3f611385565b83611464565b610d84576040517f08c379a0000000000000000000000000000000000000000000000000000000008152600401610d7b906128af565b60405180910390fd5b610d9084848484611a0f565b50505050565b606060088054610da59061265c565b80601f0160208091040260200160405190810160405280929190818152602001828054610dd19061265c565b8015610e1e5780601f10610df357610100808354040283529160200191610e1e565b820191906000526020600020905b815481529060010190602001808311610e0157829003601f168201915b5050505050905090565b6060610e3382611a6b565b610e72576040517f08c379a0000000000000000000000000000000000000000000000000000000008152600401610e6990612b77565b60405180910390fd5b6000610e7c610a1d565b90506000600a600085815260200190815260200160002054821215610ea2576008610ea5565b60095b8054610eb09061265c565b80601f0160208091040260200160405190810160405280929190818152602001828054610edc9061265c565b8015610f295780601f10610efe57610100808354040283529160200191610f29565b820191906000526020600020905b815481529060010190602001808311610f0c57829003601f168201915b50505050509050610f38611ad7565b610f69610f4361069b565b83604051602001610f55929190612d5f565b604051602081830303815290604052611158565b604051602001610f7a929190612922565b60405160208183030381529060405292505050919050565b606060098054610fa19061265c565b80601f0160208091040260200160405190810160405280929190818152602001828054610fcd9061265c565b801561101a5780601f10610fef5761010080835404028352916020019161101a565b820191906000526020600020905b815481529060010190602001808311610ffd57829003601f168201915b5050505050905090565b6000600560008473ffffffffffffffffffffffffffffffffffffffff1673ffffffffffffffffffffffffffffffffffffffff16815260200190815260200160002060008373ffffffffffffffffffffffffffffffffffffffff1673ffffffffffffffffffffffffffffffffffffffff16815260200190815260200160002060009054906101000a900460ff16905092915050565b6000600a6000838152602001908152602001600020549050919050565b6110dd61175f565b600073ffffffffffffffffffffffffffffffffffffffff168173ffffffffffffffffffffffffffffffffffffffff160361114c576040517f08c379a000000000000000000000000000000000000000000000000000000000815260040161114390612e21565b60405180910390fd5b611155816117dd565b50565b6060600082510361117a576040518060200160405280600081525090506112cb565b600060405180606001604052806040815260200161336160409139905060006003600285516111a991906127e0565b6111b39190612e70565b60046111bf9190612ea1565b905060006020826111d091906127e0565b67ffffffffffffffff8111156111e9576111e8612268565b5b6040519080825280601f01601f19166020018201604052801561121b5781602001600182028036833780820191505090505b509050818152600183018586518101602084015b8183101561128a576003830192508251603f8160121c168501518253600182019150603f81600c1c168501518253600182019150603f8160061c168501518253600182019150603f811685015182536001820191505061122f565b6003895106600181146112a457600281146112b4576112bf565b613d3d60f01b60028303526112bf565b603d60f81b60018303525b50505050508093505050505b919050565b60007f01ffc9a7000000000000000000000000000000000000000000000000000000007bffffffffffffffffffffffffffffffffffffffffffffffffffffffff1916827bffffffffffffffffffffffffffffffffffffffffffffffffffffffff1916149050919050565b61134381611a6b565b611382576040517f08c379a000000000000000000000000000000000000000000000000000000000815260040161137990612a79565b60405180910390fd5b50565b600033905090565b816004600083815260200190815260200160002060006101000a81548173ffffffffffffffffffffffffffffffffffffffff021916908373ffffffffffffffffffffffffffffffffffffffff160217905550808273ffffffffffffffffffffffffffffffffffffffff1661140083610adc565b73ffffffffffffffffffffffffffffffffffffffff167f8c5be1e5ebec7d5bd14f71427d1e84f3dd0314c0f7b2291e5b200ac8c7c3b92560405160405180910390a45050565b611460828260405180602001604052806000815250611b14565b5050565b60008061147083610adc565b90508073ffffffffffffffffffffffffffffffffffffffff168473ffffffffffffffffffffffffffffffffffffffff1614806114b257506114b18185611024565b5b806114f057508373ffffffffffffffffffffffffffffffffffffffff166114d88461072d565b73ffffffffffffffffffffffffffffffffffffffff16145b91505092915050565b8273ffffffffffffffffffffffffffffffffffffffff1661151982610adc565b73ffffffffffffffffffffffffffffffffffffffff161461156f576040517f08c379a000000000000000000000000000000000000000000000000000000000815260040161156690612f55565b60405180910390fd5b600073ffffffffffffffffffffffffffffffffffffffff168273ffffffffffffffffffffffffffffffffffffffff16036115de576040517f08c379a00000000000000000000000000000000000000000000000000000000081526004016115d590612fe7565b60405180910390fd5b6115e9838383611b6f565b6115f460008261138d565b6001600360008573ffffffffffffffffffffffffffffffffffffffff1673ffffffffffffffffffffffffffffffffffffffff16815260200190815260200160002060008282546116449190613007565b925050819055506001600360008473ffffffffffffffffffffffffffffffffffffffff1673ffffffffffffffffffffffffffffffffffffffff168152602001908152602001600020600082825461169b91906127e0565b92505081905550816002600083815260200190815260200160002060006101000a81548173ffffffffffffffffffffffffffffffffffffffff021916908373ffffffffffffffffffffffffffffffffffffffff160217905550808273ffffffffffffffffffffffffffffffffffffffff168473ffffffffffffffffffffffffffffffffffffffff167fddf252ad1be2c89b69c2b068fc378daa952ba7f163c4a11628f55a4df523b3ef60405160405180910390a461175a838383611b74565b505050565b611767611385565b73ffffffffffffffffffffffffffffffffffffffff16611785610c62565b73ffffffffffffffffffffffffffffffffffffffff16146117db576040517f08c379a00000000000000000000000000000000000000000000000000000000081526004016117d290613087565b60405180910390fd5b565b6000600660009054906101000a900473ffffffffffffffffffffffffffffffffffffffff16905081600660006101000a81548173ffffffffffffffffffffffffffffffffffffffff021916908373ffffffffffffffffffffffffffffffffffffffff1602179055508173ffffffffffffffffffffffffffffffffffffffff168173ffffffffffffffffffffffffffffffffffffffff167f8be0079c531659141344cd1fd0a4f28419497f9722a3daafe3b4186f6b6457e060405160405180910390a35050565b8173ffffffffffffffffffffffffffffffffffffffff168373ffffffffffffffffffffffffffffffffffffffff1603611911576040517f08c379a0000000000000000000000000000000000000000000000000000000008152600401611908906130f3565b60405180910390fd5b80600560008573ffffffffffffffffffffffffffffffffffffffff1673ffffffffffffffffffffffffffffffffffffffff16815260200190815260200160002060008473ffffffffffffffffffffffffffffffffffffffff1673ffffffffffffffffffffffffffffffffffffffff16815260200190815260200160002060006101000a81548160ff0219169083151502179055508173ffffffffffffffffffffffffffffffffffffffff168373ffffffffffffffffffffffffffffffffffffffff167f17307eab39ab6107e8899845ad3d59bd9653f200f220920489ca2b5937696c3183604051611a029190611fb0565b60405180910390a3505050565b611a1a8484846114f9565b611a2684848484611b79565b611a65576040517f08c379a0000000000000000000000000000000000000000000000000000000008152600401611a5c90613185565b60405180910390fd5b50505050565b60008073ffffffffffffffffffffffffffffffffffffffff166002600084815260200190815260200160002060009054906101000a900473ffffffffffffffffffffffffffffffffffffffff1673ffffffffffffffffffffffffffffffffffffffff1614159050919050565b60606040518060400160405280601d81526020017f646174613a6170706c69636174696f6e2f6a736f6e3b6261736536342c000000815250905090565b611b1e8383611d00565b611b2b6000848484611b79565b611b6a576040517f08c379a0000000000000000000000000000000000000000000000000000000008152600401611b6190613185565b60405180910390fd5b505050565b505050565b505050565b6000611b9a8473ffffffffffffffffffffffffffffffffffffffff16611ed9565b15611cf3578373ffffffffffffffffffffffffffffffffffffffff1663150b7a02611bc3611385565b8786866040518563ffffffff1660e01b8152600401611be594939291906131fa565b6020604051808303816000875af1925050508015611c2157506040513d601f19601f82011682018060405250810190611c1e919061325b565b60015b611ca3573d8060008114611c51576040519150601f19603f3d011682016040523d82523d6000602084013e611c56565b606091505b506000815103611c9b576040517f08c379a0000000000000000000000000000000000000000000000000000000008152600401611c9290613185565b60405180910390fd5b805181602001fd5b63150b7a0260e01b7bffffffffffffffffffffffffffffffffffffffffffffffffffffffff1916817bffffffffffffffffffffffffffffffffffffffffffffffffffffffff191614915050611cf8565b600190505b949350505050565b600073ffffffffffffffffffffffffffffffffffffffff168273ffffffffffffffffffffffffffffffffffffffff1603611d6f576040517f08c379a0000000000000000000000000000000000000000000000000000000008152600401611d66906132d4565b60405180910390fd5b611d7881611a6b565b15611db8576040517f08c379a0000000000000000000000000000000000000000000000000000000008152600401611daf90613340565b60405180910390fd5b611dc460008383611b6f565b6001600360008473ffffffffffffffffffffffffffffffffffffffff1673ffffffffffffffffffffffffffffffffffffffff1681526020019081526020016000206000828254611e1491906127e0565b92505081905550816002600083815260200190815260200160002060006101000a81548173ffffffffffffffffffffffffffffffffffffffff021916908373ffffffffffffffffffffffffffffffffffffffff160217905550808273ffffffffffffffffffffffffffffffffffffffff16600073ffffffffffffffffffffffffffffffffffffffff167fddf252ad1be2c89b69c2b068fc378daa952ba7f163c4a11628f55a4df523b3ef60405160405180910390a4611ed560008383611b74565b5050565b6000808273ffffffffffffffffffffffffffffffffffffffff163b119050919050565b6000604051905090565b600080fd5b600080fd5b60007fffffffff0000000000000000000000000000000000000000000000000000000082169050919050565b611f4581611f10565b8114611f5057600080fd5b50565b600081359050611f6281611f3c565b92915050565b600060208284031215611f7e57611f7d611f06565b5b6000611f8c84828501611f53565b91505092915050565b60008115159050919050565b611faa81611f95565b82525050565b6000602082019050611fc56000830184611fa1565b92915050565b600081519050919050565b600082825260208201905092915050565b60005b83811015612005578082015181840152602081019050611fea565b60008484015250505050565b6000601f19601f8301169050919050565b600061202d82611fcb565b6120378185611fd6565b9350612047818560208601611fe7565b61205081612011565b840191505092915050565b600060208201905081810360008301526120758184612022565b905092915050565b6000819050919050565b6120908161207d565b811461209b57600080fd5b50565b6000813590506120ad81612087565b92915050565b6000602082840312156120c9576120c8611f06565b5b60006120d78482850161209e565b91505092915050565b600073ffffffffffffffffffffffffffffffffffffffff82169050919050565b600061210b826120e0565b9050919050565b61211b81612100565b82525050565b60006020820190506121366000830184612112565b92915050565b61214581612100565b811461215057600080fd5b50565b6000813590506121628161213c565b92915050565b6000806040838503121561217f5761217e611f06565b5b600061218d85828601612153565b925050602061219e8582860161209e565b9150509250929050565b6000819050919050565b6121bb816121a8565b81146121c657600080fd5b50565b6000813590506121d8816121b2565b92915050565b6000602082840312156121f4576121f3611f06565b5b6000612202848285016121c9565b91505092915050565b60008060006060848603121561222457612223611f06565b5b600061223286828701612153565b935050602061224386828701612153565b92505060406122548682870161209e565b9150509250925092565b600080fd5b600080fd5b7f4e487b7100000000000000000000000000000000000000000000000000000000600052604160045260246000fd5b6122a082612011565b810181811067ffffffffffffffff821117156122bf576122be612268565b5b80604052505050565b60006122d2611efc565b90506122de8282612297565b919050565b600067ffffffffffffffff8211156122fe576122fd612268565b5b61230782612011565b9050602081019050919050565b82818337600083830152505050565b6000612336612331846122e3565b6122c8565b90508281526020810184848401111561235257612351612263565b5b61235d848285612314565b509392505050565b600082601f83011261237a5761237961225e565b5b813561238a848260208601612323565b91505092915050565b6000602082840312156123a9576123a8611f06565b5b600082013567ffffffffffffffff8111156123c7576123c6611f0b565b5b6123d384828501612365565b91505092915050565b6123e5816121a8565b82525050565b600060208201905061240060008301846123dc565b92915050565b61240f8161207d565b82525050565b600060208201905061242a6000830184612406565b92915050565b60006020828403121561244657612445611f06565b5b600061245484828501612153565b91505092915050565b61246681611f95565b811461247157600080fd5b50565b6000813590506124838161245d565b92915050565b600080604083850312156124a05761249f611f06565b5b60006124ae85828601612153565b92505060206124bf85828601612474565b9150509250929050565b600067ffffffffffffffff8211156124e4576124e3612268565b5b6124ed82612011565b9050602081019050919050565b600061250d612508846124c9565b6122c8565b90508281526020810184848401111561252957612528612263565b5b612534848285612314565b509392505050565b600082601f8301126125515761255061225e565b5b81356125618482602086016124fa565b91505092915050565b6000806000806080858703121561258457612583611f06565b5b600061259287828801612153565b94505060206125a387828801612153565b93505060406125b48782880161209e565b925050606085013567ffffffffffffffff8111156125d5576125d4611f0b565b5b6125e18782880161253c565b91505092959194509250565b6000806040838503121561260457612603611f06565b5b600061261285828601612153565b925050602061262385828601612153565b9150509250929050565b7f4e487b7100000000000000000000000000000000000000000000000000000000600052602260045260246000fd5b6000600282049050600182168061267457607f821691505b6020821081036126875761268661262d565b5b50919050565b7f4552433732313a20617070726f76616c20746f2063757272656e74206f776e6560008201527f7200000000000000000000000000000000000000000000000000000000000000602082015250565b60006126e9602183611fd6565b91506126f48261268d565b604082019050919050565b60006020820190508181036000830152612718816126dc565b9050919050565b7f4552433732313a20617070726f76652063616c6c6572206973206e6f7420746f60008201527f6b656e206f776e6572206e6f7220617070726f76656420666f7220616c6c0000602082015250565b600061277b603e83611fd6565b91506127868261271f565b604082019050919050565b600060208201905081810360008301526127aa8161276e565b9050919050565b7f4e487b7100000000000000000000000000000000000000000000000000000000600052601160045260246000fd5b60006127eb8261207d565b91506127f68361207d565b925082820190508082111561280e5761280d6127b1565b5b92915050565b60006040820190506128296000830185612406565b61283660208301846123dc565b9392505050565b7f4552433732313a2063616c6c6572206973206e6f7420746f6b656e206f776e6560008201527f72206e6f7220617070726f766564000000000000000000000000000000000000602082015250565b6000612899602e83611fd6565b91506128a48261283d565b604082019050919050565b600060208201905081810360008301526128c88161288c565b9050919050565b600081905092915050565b60006128e582611fcb565b6128ef81856128cf565b93506128ff818560208601611fe7565b80840191505092915050565b600061291782846128da565b915081905092915050565b600061292e82856128da565b915061293a82846128da565b91508190509392505050565b600069ffffffffffffffffffff82169050919050565b61296581612946565b811461297057600080fd5b50565b6000815190506129828161295c565b92915050565b600081519050612997816121b2565b92915050565b6000815190506129ac81612087565b92915050565b600080600080600060a086880312156129ce576129cd611f06565b5b60006129dc88828901612973565b95505060206129ed88828901612988565b94505060406129fe8882890161299d565b9350506060612a0f8882890161299d565b9250506080612a2088828901612973565b9150509295509295909350565b7f4552433732313a20696e76616c696420746f6b656e2049440000000000000000600082015250565b6000612a63601883611fd6565b9150612a6e82612a2d565b602082019050919050565b60006020820190508181036000830152612a9281612a56565b9050919050565b7f4552433732313a2061646472657373207a65726f206973206e6f74206120766160008201527f6c6964206f776e65720000000000000000000000000000000000000000000000602082015250565b6000612af5602983611fd6565b9150612b0082612a99565b604082019050919050565b60006020820190508181036000830152612b2481612ae8565b9050919050565b7f55524920717565727920666f72206e6f6e6578697374656e7420746f6b656e00600082015250565b6000612b61601f83611fd6565b9150612b6c82612b2b565b602082019050919050565b60006020820190508181036000830152612b9081612b54565b9050919050565b7f7b226e616d65223a220000000000000000000000000000000000000000000000600082015250565b6000612bcd6009836128cf565b9150612bd882612b97565b600982019050919050565b7f222c20226465736372697074696f6e223a22416e204e4654207468617420636860008201527f616e676573206261736564206f6e2074686520436861696e6c696e6b2046656560208201527f64222c2000000000000000000000000000000000000000000000000000000000604082015250565b6000612c656044836128cf565b9150612c7082612be3565b604482019050919050565b7f2261747472696275746573223a205b7b2274726169745f74797065223a20227460008201527f697265646e657373222c202276616c7565223a203130307d5d2c2022696d616760208201527f65223a2200000000000000000000000000000000000000000000000000000000604082015250565b6000612cfd6044836128cf565b9150612d0882612c7b565b604482019050919050565b7f227d000000000000000000000000000000000000000000000000000000000000600082015250565b6000612d496002836128cf565b9150612d5482612d13565b600282019050919050565b6000612d6a82612bc0565b9150612d7682856128da565b9150612d8182612c58565b9150612d8c82612cf0565b9150612d9882846128da565b9150612da382612d3c565b91508190509392505050565b7f4f776e61626c653a206e6577206f776e657220697320746865207a65726f206160008201527f6464726573730000000000000000000000000000000000000000000000000000602082015250565b6000612e0b602683611fd6565b9150612e1682612daf565b604082019050919050565b60006020820190508181036000830152612e3a81612dfe565b9050919050565b7f4e487b7100000000000000000000000000000000000000000000000000000000600052601260045260246000fd5b6000612e7b8261207d565b9150612e868361207d565b925082612e9657612e95612e41565b5b828204905092915050565b6000612eac8261207d565b9150612eb78361207d565b9250828202612ec58161207d565b91508282048414831517612edc57612edb6127b1565b5b5092915050565b7f4552433732313a207472616e736665722066726f6d20696e636f72726563742060008201527f6f776e6572000000000000000000000000000000000000000000000000000000602082015250565b6000612f3f602583611fd6565b9150612f4a82612ee3565b604082019050919050565b60006020820190508181036000830152612f6e81612f32565b9050919050565b7f4552433732313a207472616e7366657220746f20746865207a65726f2061646460008201527f7265737300000000000000000000000000000000000000000000000000000000602082015250565b6000612fd1602483611fd6565b9150612fdc82612f75565b604082019050919050565b6000602082019050818103600083015261300081612fc4565b9050919050565b60006130128261207d565b915061301d8361207d565b9250828203905081811115613035576130346127b1565b5b92915050565b7f4f776e61626c653a2063616c6c6572206973206e6f7420746865206f776e6572600082015250565b6000613071602083611fd6565b915061307c8261303b565b602082019050919050565b600060208201905081810360008301526130a081613064565b9050919050565b7f4552433732313a20617070726f766520746f2063616c6c657200000000000000600082015250565b60006130dd601983611fd6565b91506130e8826130a7565b602082019050919050565b6000602082019050818103600083015261310c816130d0565b9050919050565b7f4552433732313a207472616e7366657220746f206e6f6e20455243373231526560008201527f63656976657220696d706c656d656e7465720000000000000000000000000000602082015250565b600061316f603283611fd6565b915061317a82613113565b604082019050919050565b6000602082019050818103600083015261319e81613162565b9050919050565b600081519050919050565b600082825260208201905092915050565b60006131cc826131a5565b6131d681856131b0565b93506131e6818560208601611fe7565b6131ef81612011565b840191505092915050565b600060808201905061320f6000830187612112565b61321c6020830186612112565b6132296040830185612406565b818103606083015261323b81846131c1565b905095945050505050565b60008151905061325581611f3c565b92915050565b60006020828403121561327157613270611f06565b5b600061327f84828501613246565b91505092915050565b7f4552433732313a206d696e7420746f20746865207a65726f2061646472657373600082015250565b60006132be602083611fd6565b91506132c982613288565b602082019050919050565b600060208201905081810360008301526132ed816132b1565b9050919050565b7f4552433732313a20746f6b656e20616c7265616479206d696e74656400000000600082015250565b600061332a601c83611fd6565b9150613335826132f4565b602082019050919050565b600060208201905081810360008301526133598161331d565b905091905056fe4142434445464748494a4b4c4d4e4f505152535455565758595a6162636465666768696a6b6c6d6e6f707172737475767778797a303132333435363738392b2fa2646970667358221220d1ed63cb564e25a40744b0bc1fb74e7cc2c57ff438ab376f75c706f651433b8864736f6c634300081100334142434445464748494a4b4c4d4e4f505152535455565758595a6162636465666768696a6b6c6d6e6f707172737475767778797a303132333435363738392b2f",
  "devdoc": {
    "kind": "dev",
    "methods": {
      "approve(address,uint256)": {
        "details": "See {IERC721-approve}."
      },
      "balanceOf(address)": {
        "details": "See {IERC721-balanceOf}."
      },
      "getApproved(uint256)": {
        "details": "See {IERC721-getApproved}."
      },
      "isApprovedForAll(address,address)": {
        "details": "See {IERC721-isApprovedForAll}."
      },
      "name()": {
        "details": "See {IERC721Metadata-name}."
      },
      "owner()": {
        "details": "Returns the address of the current owner."
      },
      "ownerOf(uint256)": {
        "details": "See {IERC721-ownerOf}."
      },
      "renounceOwnership()": {
        "details": "Leaves the contract without owner. It will not be possible to call `onlyOwner` functions anymore. Can only be called by the current owner. NOTE: Renouncing ownership will leave the contract without an owner, thereby removing any functionality that is only available to the owner."
      },
      "safeTransferFrom(address,address,uint256)": {
        "details": "See {IERC721-safeTransferFrom}."
      },
      "safeTransferFrom(address,address,uint256,bytes)": {
        "details": "See {IERC721-safeTransferFrom}."
      },
      "setApprovalForAll(address,bool)": {
        "details": "See {IERC721-setApprovalForAll}."
      },
      "supportsInterface(bytes4)": {
        "details": "See {IERC165-supportsInterface}."
      },
      "symbol()": {
        "details": "See {IERC721Metadata-symbol}."
      },
      "tokenURI(uint256)": {
        "details": "See {IERC721Metadata-tokenURI}."
      },
      "transferFrom(address,address,uint256)": {
        "details": "See {IERC721-transferFrom}."
      },
      "transferOwnership(address)": {
        "details": "Transfers ownership of the contract to a new account (`newOwner`). Can only be called by the current owner."
      }
    },
    "version": 1
  },
  "userdoc": {
    "kind": "user",
    "methods": {},
    "version": 1
  },
  "storageLayout": {
    "storage": [
      {
        "astId": 1296,
        "contract": "contracts/DynamicSvgNft.sol:DynamicSvgNft",
        "label": "_name",
        "offset": 0,
        "slot": "0",
        "type": "t_string_storage"
      },
      {
        "astId": 1298,
        "contract": "contracts/DynamicSvgNft.sol:DynamicSvgNft",
        "label": "_symbol",
        "offset": 0,
        "slot": "1",
        "type": "t_string_storage"
      },
      {
        "astId": 1302,
        "contract": "contracts/DynamicSvgNft.sol:DynamicSvgNft",
        "label": "_owners",
        "offset": 0,
        "slot": "2",
        "type": "t_mapping(t_uint256,t_address)"
      },
      {
        "astId": 1306,
        "contract": "contracts/DynamicSvgNft.sol:DynamicSvgNft",
        "label": "_balances",
        "offset": 0,
        "slot": "3",
        "type": "t_mapping(t_address,t_uint256)"
      },
      {
        "astId": 1310,
        "contract": "contracts/DynamicSvgNft.sol:DynamicSvgNft",
        "label": "_tokenApprovals",
        "offset": 0,
        "slot": "4",
        "type": "t_mapping(t_uint256,t_address)"
      },
      {
        "astId": 1316,
        "contract": "contracts/DynamicSvgNft.sol:DynamicSvgNft",
        "label": "_operatorApprovals",
        "offset": 0,
        "slot": "5",
        "type": "t_mapping(t_address,t_mapping(t_address,t_bool))"
      },
      {
        "astId": 1165,
        "contract": "contracts/DynamicSvgNft.sol:DynamicSvgNft",
        "label": "_owner",
        "offset": 0,
        "slot": "6",
        "type": "t_address"
      },
      {
        "astId": 3189,
        "contract": "contracts/DynamicSvgNft.sol:DynamicSvgNft",
        "label": "s_tokenCounter",
        "offset": 0,
        "slot": "7",
        "type": "t_uint256"
      },
      {
        "astId": 3191,
        "contract": "contracts/DynamicSvgNft.sol:DynamicSvgNft",
        "label": "i_lowImageURI",
        "offset": 0,
        "slot": "8",
        "type": "t_string_storage"
      },
      {
        "astId": 3193,
        "contract": "contracts/DynamicSvgNft.sol:DynamicSvgNft",
        "label": "i_highImageURI",
        "offset": 0,
        "slot": "9",
        "type": "t_string_storage"
      },
      {
        "astId": 3203,
        "contract": "contracts/DynamicSvgNft.sol:DynamicSvgNft",
        "label": "s_tokenIdToHighValue",
        "offset": 0,
        "slot": "10",
        "type": "t_mapping(t_uint256,t_int256)"
      }
    ],
    "types": {
      "t_address": {
        "encoding": "inplace",
        "label": "address",
        "numberOfBytes": "20"
      },
      "t_bool": {
        "encoding": "inplace",
        "label": "bool",
        "numberOfBytes": "1"
      },
      "t_int256": {
        "encoding": "inplace",
        "label": "int256",
        "numberOfBytes": "32"
      },
      "t_mapping(t_address,t_bool)": {
        "encoding": "mapping",
        "key": "t_address",
        "label": "mapping(address => bool)",
        "numberOfBytes": "32",
        "value": "t_bool"
      },
      "t_mapping(t_address,t_mapping(t_address,t_bool))": {
        "encoding": "mapping",
        "key": "t_address",
        "label": "mapping(address => mapping(address => bool))",
        "numberOfBytes": "32",
        "value": "t_mapping(t_address,t_bool)"
      },
      "t_mapping(t_address,t_uint256)": {
        "encoding": "mapping",
        "key": "t_address",
        "label": "mapping(address => uint256)",
        "numberOfBytes": "32",
        "value": "t_uint256"
      },
      "t_mapping(t_uint256,t_address)": {
        "encoding": "mapping",
        "key": "t_uint256",
        "label": "mapping(uint256 => address)",
        "numberOfBytes": "32",
        "value": "t_address"
      },
      "t_mapping(t_uint256,t_int256)": {
        "encoding": "mapping",
        "key": "t_uint256",
        "label": "mapping(uint256 => int256)",
        "numberOfBytes": "32",
        "value": "t_int256"
      },
      "t_string_storage": {
        "encoding": "bytes",
        "label": "string",
        "numberOfBytes": "32"
      },
      "t_uint256": {
        "encoding": "inplace",
        "label": "uint256",
        "numberOfBytes": "32"
      }
    }
  }
}