{
  "address": "0x68B1D87F95878fE05B998F19b66F4baba5De1aed",
  "abi": [
    {
      "inputs": [
        {
          "internalType": "address",
          "name": "vrfCoordinatorV2",
          "type": "address"
        },
        {
          "internalType": "uint64",
          "name": "subscriptionId",
          "type": "uint64"
        },
        {
          "internalType": "bytes32",
          "name": "gasLane",
          "type": "bytes32"
        },
        {
          "internalType": "uint32",
          "name": "callbackGasLimit",
          "type": "uint32"
        },
        {
          "internalType": "string[3]",
          "name": "dogTokenUris",
          "type": "string[3]"
        },
        {
          "internalType": "uint256",
          "name": "mintFee",
          "type": "uint256"
        }
      ],
      "stateMutability": "nonpayable",
      "type": "constructor"
    },
    {
      "inputs": [
        {
          "internalType": "address",
          "name": "have",
          "type": "address"
        },
        {
          "internalType": "address",
          "name": "want",
          "type": "address"
        }
      ],
      "name": "OnlyCoordinatorCanFulfill",
      "type": "error"
    },
    {
      "inputs": [],
      "name": "RandomIpfsNft__RangeOutOfBounds",
      "type": "error"
    },
    {
      "inputs": [],
      "name": "RandomIpfsNft__WithdrawFailed",
      "type": "error"
    },
    {
      "anonymous": false,
      "inputs": [
        {
          "indexed": true,
          "internalType": "address",
          "name": "owner",
          "type": "address"
        },
        {
          "indexed": true,
          "internalType": "address",
          "name": "approved",
          "type": "address"
        },
        {
          "indexed": true,
          "internalType": "uint256",
          "name": "tokenId",
          "type": "uint256"
        }
      ],
      "name": "Approval",
      "type": "event"
    },
    {
      "anonymous": false,
      "inputs": [
        {
          "indexed": true,
          "internalType": "address",
          "name": "owner",
          "type": "address"
        },
        {
          "indexed": true,
          "internalType": "address",
          "name": "operator",
          "type": "address"
        },
        {
          "indexed": false,
          "internalType": "bool",
          "name": "approved",
          "type": "bool"
        }
      ],
      "name": "ApprovalForAll",
      "type": "event"
    },
    {
      "anonymous": false,
      "inputs": [
        {
          "indexed": false,
          "internalType": "enum RandomIpfsNft.Breed",
          "name": "breed",
          "type": "uint8"
        },
        {
          "indexed": false,
          "internalType": "address",
          "name": "minter",
          "type": "address"
        }
      ],
      "name": "NftMinted",
      "type": "event"
    },
    {
      "anonymous": false,
      "inputs": [
        {
          "indexed": true,
          "internalType": "uint256",
          "name": "requestId",
          "type": "uint256"
        },
        {
          "indexed": false,
          "internalType": "address",
          "name": "sender",
          "type": "address"
        }
      ],
      "name": "NftRequested",
      "type": "event"
    },
    {
      "anonymous": false,
      "inputs": [
        {
          "indexed": true,
          "internalType": "address",
          "name": "previousOwner",
          "type": "address"
        },
        {
          "indexed": true,
          "internalType": "address",
          "name": "newOwner",
          "type": "address"
        }
      ],
      "name": "OwnershipTransferred",
      "type": "event"
    },
    {
      "anonymous": false,
      "inputs": [
        {
          "indexed": true,
          "internalType": "address",
          "name": "from",
          "type": "address"
        },
        {
          "indexed": true,
          "internalType": "address",
          "name": "to",
          "type": "address"
        },
        {
          "indexed": true,
          "internalType": "uint256",
          "name": "tokenId",
          "type": "uint256"
        }
      ],
      "name": "Transfer",
      "type": "event"
    },
    {
      "inputs": [
        {
          "internalType": "address",
          "name": "to",
          "type": "address"
        },
        {
          "internalType": "uint256",
          "name": "tokenId",
          "type": "uint256"
        }
      ],
      "name": "approve",
      "outputs": [],
      "stateMutability": "nonpayable",
      "type": "function"
    },
    {
      "inputs": [
        {
          "internalType": "address",
          "name": "owner",
          "type": "address"
        }
      ],
      "name": "balanceOf",
      "outputs": [
        {
          "internalType": "uint256",
          "name": "",
          "type": "uint256"
        }
      ],
      "stateMutability": "view",
      "type": "function"
    },
    {
      "inputs": [
        {
          "internalType": "uint256",
          "name": "tokenId",
          "type": "uint256"
        }
      ],
      "name": "getApproved",
      "outputs": [
        {
          "internalType": "address",
          "name": "",
          "type": "address"
        }
      ],
      "stateMutability": "view",
      "type": "function"
    },
    {
      "inputs": [
        {
          "internalType": "uint256",
          "name": "moddedRng",
          "type": "uint256"
        }
      ],
      "name": "getBreedFromModdedRng",
      "outputs": [
        {
          "internalType": "enum RandomIpfsNft.Breed",
          "name": "",
          "type": "uint8"
        }
      ],
      "stateMutability": "pure",
      "type": "function"
    },
    {
      "inputs": [],
      "name": "getChanceArray",
      "outputs": [
        {
          "internalType": "uint256[3]",
          "name": "",
          "type": "uint256[3]"
        }
      ],
      "stateMutability": "pure",
      "type": "function"
    },
    {
      "inputs": [
        {
          "internalType": "uint256",
          "name": "index",
          "type": "uint256"
        }
      ],
      "name": "getDogTokenUri",
      "outputs": [
        {
          "internalType": "string",
          "name": "",
          "type": "string"
        }
      ],
      "stateMutability": "view",
      "type": "function"
    },
    {
      "inputs": [],
      "name": "getMintFee",
      "outputs": [
        {
          "internalType": "uint256",
          "name": "",
          "type": "uint256"
        }
      ],
      "stateMutability": "view",
      "type": "function"
    },
    {
      "inputs": [],
      "name": "getTokenCounter",
      "outputs": [
        {
          "internalType": "uint256",
          "name": "",
          "type": "uint256"
        }
      ],
      "stateMutability": "view",
      "type": "function"
    },
    {
      "inputs": [
        {
          "internalType": "address",
          "name": "owner",
          "type": "address"
        },
        {
          "internalType": "address",
          "name": "operator",
          "type": "address"
        }
      ],
      "name": "isApprovedForAll",
      "outputs": [
        {
          "internalType": "bool",
          "name": "",
          "type": "bool"
        }
      ],
      "stateMutability": "view",
      "type": "function"
    },
    {
      "inputs": [],
      "name": "name",
      "outputs": [
        {
          "internalType": "string",
          "name": "",
          "type": "string"
        }
      ],
      "stateMutability": "view",
      "type": "function"
    },
    {
      "inputs": [],
      "name": "owner",
      "outputs": [
        {
          "internalType": "address",
          "name": "",
          "type": "address"
        }
      ],
      "stateMutability": "view",
      "type": "function"
    },
    {
      "inputs": [
        {
          "internalType": "uint256",
          "name": "tokenId",
          "type": "uint256"
        }
      ],
      "name": "ownerOf",
      "outputs": [
        {
          "internalType": "address",
          "name": "",
          "type": "address"
        }
      ],
      "stateMutability": "view",
      "type": "function"
    },
    {
      "inputs": [
        {
          "internalType": "uint256",
          "name": "requestId",
          "type": "uint256"
        },
        {
          "internalType": "uint256[]",
          "name": "randomWords",
          "type": "uint256[]"
        }
      ],
      "name": "rawFulfillRandomWords",
      "outputs": [],
      "stateMutability": "nonpayable",
      "type": "function"
    },
    {
      "inputs": [],
      "name": "renounceOwnership",
      "outputs": [],
      "stateMutability": "nonpayable",
      "type": "function"
    },
    {
      "inputs": [],
      "name": "requestNft",
      "outputs": [
        {
          "internalType": "uint256",
          "name": "requestId",
          "type": "uint256"
        }
      ],
      "stateMutability": "payable",
      "type": "function"
    },
    {
      "inputs": [
        {
          "internalType": "address",
          "name": "from",
          "type": "address"
        },
        {
          "internalType": "address",
          "name": "to",
          "type": "address"
        },
        {
          "internalType": "uint256",
          "name": "tokenId",
          "type": "uint256"
        }
      ],
      "name": "safeTransferFrom",
      "outputs": [],
      "stateMutability": "nonpayable",
      "type": "function"
    },
    {
      "inputs": [
        {
          "internalType": "address",
          "name": "from",
          "type": "address"
        },
        {
          "internalType": "address",
          "name": "to",
          "type": "address"
        },
        {
          "internalType": "uint256",
          "name": "tokenId",
          "type": "uint256"
        },
        {
          "internalType": "bytes",
          "name": "data",
          "type": "bytes"
        }
      ],
      "name": "safeTransferFrom",
      "outputs": [],
      "stateMutability": "nonpayable",
      "type": "function"
    },
    {
      "inputs": [
        {
          "internalType": "address",
          "name": "operator",
          "type": "address"
        },
        {
          "internalType": "bool",
          "name": "approved",
          "type": "bool"
        }
      ],
      "name": "setApprovalForAll",
      "outputs": [],
      "stateMutability": "nonpayable",
      "type": "function"
    },
    {
      "inputs": [
        {
          "internalType": "bytes4",
          "name": "interfaceId",
          "type": "bytes4"
        }
      ],
      "name": "supportsInterface",
      "outputs": [
        {
          "internalType": "bool",
          "name": "",
          "type": "bool"
        }
      ],
      "stateMutability": "view",
      "type": "function"
    },
    {
      "inputs": [],
      "name": "symbol",
      "outputs": [
        {
          "internalType": "string",
          "name": "",
          "type": "string"
        }
      ],
      "stateMutability": "view",
      "type": "function"
    },
    {
      "inputs": [
        {
          "internalType": "uint256",
          "name": "tokenId",
          "type": "uint256"
        }
      ],
      "name": "tokenURI",
      "outputs": [
        {
          "internalType": "string",
          "name": "",
          "type": "string"
        }
      ],
      "stateMutability": "view",
      "type": "function"
    },
    {
      "inputs": [
        {
          "internalType": "address",
          "name": "from",
          "type": "address"
        },
        {
          "internalType": "address",
          "name": "to",
          "type": "address"
        },
        {
          "internalType": "uint256",
          "name": "tokenId",
          "type": "uint256"
        }
      ],
      "name": "transferFrom",
      "outputs": [],
      "stateMutability": "nonpayable",
      "type": "function"
    },
    {
      "inputs": [
        {
          "internalType": "address",
          "name": "newOwner",
          "type": "address"
        }
      ],
      "name": "transferOwnership",
      "outputs": [],
      "stateMutability": "nonpayable",
      "type": "function"
    },
    {
      "inputs": [],
      "name": "withdraw",
      "outputs": [],
      "stateMutability": "nonpayable",
      "type": "function"
    }
  ],
  "transactionHash": "0xdd3668e795d17115855e63bacad256d9751fe1c882bbf281df44e2049c38504c",
  "args": [
    "0x5FbDB2315678afecb367f032d93F642f64180aa3",
    "3",
    "0xd89b2bf150e3b9e13446986e571fb9cab24b13cea0a43ea20a6049a85cc807cc",
    "500000",
    [
      "ipfs://QmaYUzv1Mm4tGwmtdw6ajv1945dnCYMdBAoB5RBdbuVHKL",
      "ipfs://QmYpo4hMJu3X86Lm7FTAga4qm3Xw78YNAKUUuWJBRBudjq",
      "ipfs://Qmb6pdMJcbndnLbejYdD4Bi2UQdfsXkio6wwYjZTowz67h"
    ],
    "10000000000000000"
  ],
  "numDeployments": 3,
  "solcInputHash": "f73e5ffed52ddee87459f1546222213a",
  "bytecode": "0x6101406040523480156200001257600080fd5b50604051620045523803806200455283398181016040528101906200003891906200074f565b856040518060400160405280600d81526020017f52616e646f6d497066734e6674000000000000000000000000000000000000008152506040518060400160405280600381526020017f52494e00000000000000000000000000000000000000000000000000000000008152508160009081620000b6919062000a4b565b508060019081620000c8919062000a4b565b505050620000eb620000df620001b660201b60201c565b620001be60201b60201c565b8073ffffffffffffffffffffffffffffffffffffffff1660808173ffffffffffffffffffffffffffffffffffffffff1681525050508573ffffffffffffffffffffffffffffffffffffffff1660a08173ffffffffffffffffffffffffffffffffffffffff16815250508467ffffffffffffffff1660c08167ffffffffffffffff16815250508361010081815250508263ffffffff1660e08163ffffffff1681525050816009906003620001a092919062000284565b5080610120818152505050505050505062000b32565b600033905090565b6000600760009054906101000a900473ffffffffffffffffffffffffffffffffffffffff16905081600760006101000a81548173ffffffffffffffffffffffffffffffffffffffff021916908373ffffffffffffffffffffffffffffffffffffffff1602179055508173ffffffffffffffffffffffffffffffffffffffff168173ffffffffffffffffffffffffffffffffffffffff167f8be0079c531659141344cd1fd0a4f28419497f9722a3daafe3b4186f6b6457e060405160405180910390a35050565b828054828255906000526020600020908101928215620002d1579160200282015b82811115620002d0578251829081620002bf919062000a4b565b5091602001919060010190620002a5565b5b509050620002e09190620002e4565b5090565b5b80821115620003085760008181620002fe91906200030c565b50600101620002e5565b5090565b5080546200031a9062000844565b6000825580601f106200032e57506200034f565b601f0160209004906000526020600020908101906200034e919062000352565b5b50565b5b808211156200036d57600081600090555060010162000353565b5090565b6000604051905090565b600080fd5b600080fd5b600073ffffffffffffffffffffffffffffffffffffffff82169050919050565b6000620003b28262000385565b9050919050565b620003c481620003a5565b8114620003d057600080fd5b50565b600081519050620003e481620003b9565b92915050565b600067ffffffffffffffff82169050919050565b6200040981620003ea565b81146200041557600080fd5b50565b6000815190506200042981620003fe565b92915050565b6000819050919050565b62000444816200042f565b81146200045057600080fd5b50565b600081519050620004648162000439565b92915050565b600063ffffffff82169050919050565b62000485816200046a565b81146200049157600080fd5b50565b600081519050620004a5816200047a565b92915050565b600080fd5b6000601f19601f8301169050919050565b7f4e487b7100000000000000000000000000000000000000000000000000000000600052604160045260246000fd5b620004fb82620004b0565b810181811067ffffffffffffffff821117156200051d576200051c620004c1565b5b80604052505050565b60006200053262000371565b9050620005408282620004f0565b919050565b600067ffffffffffffffff821115620005635762000562620004c1565b5b602082029050919050565b600080fd5b600080fd5b600067ffffffffffffffff821115620005965762000595620004c1565b5b620005a182620004b0565b9050602081019050919050565b60005b83811015620005ce578082015181840152602081019050620005b1565b60008484015250505050565b6000620005f1620005eb8462000578565b62000526565b90508281526020810184848401111562000610576200060f62000573565b5b6200061d848285620005ae565b509392505050565b600082601f8301126200063d576200063c620004ab565b5b81516200064f848260208601620005da565b91505092915050565b60006200066f620006698462000545565b62000526565b905080602084028301858111156200068c576200068b6200056e565b5b835b81811015620006da57805167ffffffffffffffff811115620006b557620006b4620004ab565b5b808601620006c4898262000625565b855260208501945050506020810190506200068e565b5050509392505050565b600082601f830112620006fc57620006fb620004ab565b5b60036200070b84828562000658565b91505092915050565b6000819050919050565b620007298162000714565b81146200073557600080fd5b50565b60008151905062000749816200071e565b92915050565b60008060008060008060c087890312156200076f576200076e6200037b565b5b60006200077f89828a01620003d3565b96505060206200079289828a0162000418565b9550506040620007a589828a0162000453565b9450506060620007b889828a0162000494565b935050608087015167ffffffffffffffff811115620007dc57620007db62000380565b5b620007ea89828a01620006e4565b92505060a0620007fd89828a0162000738565b9150509295509295509295565b600081519050919050565b7f4e487b7100000000000000000000000000000000000000000000000000000000600052602260045260246000fd5b600060028204905060018216806200085d57607f821691505b60208210810362000873576200087262000815565b5b50919050565b60008190508160005260206000209050919050565b60006020601f8301049050919050565b600082821b905092915050565b600060088302620008dd7fffffffffffffffffffffffffffffffffffffffffffffffffffffffffffffffff826200089e565b620008e986836200089e565b95508019841693508086168417925050509392505050565b6000819050919050565b60006200092c62000926620009208462000714565b62000901565b62000714565b9050919050565b6000819050919050565b62000948836200090b565b62000960620009578262000933565b848454620008ab565b825550505050565b600090565b6200097762000968565b620009848184846200093d565b505050565b5b81811015620009ac57620009a06000826200096d565b6001810190506200098a565b5050565b601f821115620009fb57620009c58162000879565b620009d0846200088e565b81016020851015620009e0578190505b620009f8620009ef856200088e565b83018262000989565b50505b505050565b600082821c905092915050565b600062000a206000198460080262000a00565b1980831691505092915050565b600062000a3b838362000a0d565b9150826002028217905092915050565b62000a56826200080a565b67ffffffffffffffff81111562000a725762000a71620004c1565b5b62000a7e825462000844565b62000a8b828285620009b0565b600060209050601f83116001811462000ac3576000841562000aae578287015190505b62000aba858262000a2d565b86555062000b2a565b601f19841662000ad38662000879565b60005b8281101562000afd5784890151825560018201915060208501945060208101905062000ad6565b8683101562000b1d578489015162000b19601f89168262000a0d565b8355505b6001600288020188555050505b505050505050565b60805160a05160c05160e05161010051610120516139c962000b896000396000610ccf01526000610edc01526000610f2001526000610efd01526000610ea001526000818161087801526108cc01526139c96000f3fe60806040526004361061014b5760003560e01c8063715018a6116100b6578063a51cccf31161006f578063a51cccf31461047e578063aa152491146104bb578063b88d4fde146104d9578063c87b56dd14610502578063e985e9c51461053f578063f2fde38b1461057c5761014b565b8063715018a614610380578063741a63fa146103975780637a5caab3146103d45780638da5cb5b146103ff57806395d89b411461042a578063a22cb465146104555761014b565b80633ccfd60b116101085780633ccfd60b1461027057806342842e0e146102875780635dacf5f4146102b05780636352211e146102db5780636e02007d1461031857806370a08231146103435761014b565b806301ffc9a71461015057806306fdde031461018d578063081812fc146101b8578063095ea7b3146101f55780631fe543e31461021e57806323b872dd14610247575b600080fd5b34801561015c57600080fd5b5061017760048036038101906101729190612326565b6105a5565b604051610184919061236e565b60405180910390f35b34801561019957600080fd5b506101a2610687565b6040516101af9190612419565b60405180910390f35b3480156101c457600080fd5b506101df60048036038101906101da9190612471565b610719565b6040516101ec91906124df565b60405180910390f35b34801561020157600080fd5b5061021c60048036038101906102179190612526565b61075f565b005b34801561022a57600080fd5b50610245600480360381019061024091906126ae565b610876565b005b34801561025357600080fd5b5061026e6004803603810190610269919061270a565b610936565b005b34801561027c57600080fd5b50610285610996565b005b34801561029357600080fd5b506102ae60048036038101906102a9919061270a565b610a4a565b005b3480156102bc57600080fd5b506102c5610a6a565b6040516102d29190612808565b60405180910390f35b3480156102e757600080fd5b5061030260048036038101906102fd9190612471565b610a95565b60405161030f91906124df565b60405180910390f35b34801561032457600080fd5b5061032d610b46565b60405161033a9190612832565b60405180910390f35b34801561034f57600080fd5b5061036a6004803603810190610365919061284d565b610b50565b6040516103779190612832565b60405180910390f35b34801561038c57600080fd5b50610395610c07565b005b3480156103a357600080fd5b506103be60048036038101906103b99190612471565b610c1b565b6040516103cb9190612419565b60405180910390f35b3480156103e057600080fd5b506103e9610ccb565b6040516103f69190612832565b60405180910390f35b34801561040b57600080fd5b50610414610cf3565b60405161042191906124df565b60405180910390f35b34801561043657600080fd5b5061043f610d1d565b60405161044c9190612419565b60405180910390f35b34801561046157600080fd5b5061047c600480360381019061047791906128a6565b610daf565b005b34801561048a57600080fd5b506104a560048036038101906104a09190612471565b610dc5565b6040516104b2919061295d565b60405180910390f35b6104c3610e9c565b6040516104d09190612832565b60405180910390f35b3480156104e557600080fd5b5061050060048036038101906104fb9190612a2d565b611033565b005b34801561050e57600080fd5b5061052960048036038101906105249190612471565b611095565b6040516105369190612419565b60405180910390f35b34801561054b57600080fd5b5061056660048036038101906105619190612ab0565b6111a7565b604051610573919061236e565b60405180910390f35b34801561058857600080fd5b506105a3600480360381019061059e919061284d565b61123b565b005b60007f80ac58cd000000000000000000000000000000000000000000000000000000007bffffffffffffffffffffffffffffffffffffffffffffffffffffffff1916827bffffffffffffffffffffffffffffffffffffffffffffffffffffffff1916148061067057507f5b5e139f000000000000000000000000000000000000000000000000000000007bffffffffffffffffffffffffffffffffffffffffffffffffffffffff1916827bffffffffffffffffffffffffffffffffffffffffffffffffffffffff1916145b80610680575061067f826112be565b5b9050919050565b60606000805461069690612b1f565b80601f01602080910402602001604051908101604052809291908181526020018280546106c290612b1f565b801561070f5780601f106106e45761010080835404028352916020019161070f565b820191906000526020600020905b8154815290600101906020018083116106f257829003601f168201915b5050505050905090565b600061072482611328565b6004600083815260200190815260200160002060009054906101000a900473ffffffffffffffffffffffffffffffffffffffff169050919050565b600061076a82610a95565b90508073ffffffffffffffffffffffffffffffffffffffff168373ffffffffffffffffffffffffffffffffffffffff16036107da576040517f08c379a00000000000000000000000000000000000000000000000000000000081526004016107d190612bc2565b60405180910390fd5b8073ffffffffffffffffffffffffffffffffffffffff166107f9611373565b73ffffffffffffffffffffffffffffffffffffffff161480610828575061082781610822611373565b6111a7565b5b610867576040517f08c379a000000000000000000000000000000000000000000000000000000000815260040161085e90612c54565b60405180910390fd5b610871838361137b565b505050565b7f000000000000000000000000000000000000000000000000000000000000000073ffffffffffffffffffffffffffffffffffffffff163373ffffffffffffffffffffffffffffffffffffffff161461092857337f00000000000000000000000000000000000000000000000000000000000000006040517f1cf993f400000000000000000000000000000000000000000000000000000000815260040161091f929190612c74565b60405180910390fd5b6109328282611434565b5050565b610947610941611373565b826115d3565b610986576040517f08c379a000000000000000000000000000000000000000000000000000000000815260040161097d90612d0f565b60405180910390fd5b610991838383611668565b505050565b61099e6118ce565b600047905060003373ffffffffffffffffffffffffffffffffffffffff16826040516109c990612d60565b60006040518083038185875af1925050503d8060008114610a06576040519150601f19603f3d011682016040523d82523d6000602084013e610a0b565b606091505b5050905080610a46576040517f61746da100000000000000000000000000000000000000000000000000000000815260040160405180910390fd5b5050565b610a6583838360405180602001604052806000815250611033565b505050565b610a72612298565b6040518060600160405280600a8152602001601e81526020016064815250905090565b6000806002600084815260200190815260200160002060009054906101000a900473ffffffffffffffffffffffffffffffffffffffff169050600073ffffffffffffffffffffffffffffffffffffffff168173ffffffffffffffffffffffffffffffffffffffff1603610b3d576040517f08c379a0000000000000000000000000000000000000000000000000000000008152600401610b3490612dc1565b60405180910390fd5b80915050919050565b6000600854905090565b60008073ffffffffffffffffffffffffffffffffffffffff168273ffffffffffffffffffffffffffffffffffffffff1603610bc0576040517f08c379a0000000000000000000000000000000000000000000000000000000008152600401610bb790612e53565b60405180910390fd5b600360008373ffffffffffffffffffffffffffffffffffffffff1673ffffffffffffffffffffffffffffffffffffffff168152602001908152602001600020549050919050565b610c0f6118ce565b610c19600061194c565b565b606060098281548110610c3157610c30612e73565b5b906000526020600020018054610c4690612b1f565b80601f0160208091040260200160405190810160405280929190818152602001828054610c7290612b1f565b8015610cbf5780601f10610c9457610100808354040283529160200191610cbf565b820191906000526020600020905b815481529060010190602001808311610ca257829003601f168201915b50505050509050919050565b60007f0000000000000000000000000000000000000000000000000000000000000000905090565b6000600760009054906101000a900473ffffffffffffffffffffffffffffffffffffffff16905090565b606060018054610d2c90612b1f565b80601f0160208091040260200160405190810160405280929190818152602001828054610d5890612b1f565b8015610da55780601f10610d7a57610100808354040283529160200191610da5565b820191906000526020600020905b815481529060010190602001808311610d8857829003601f168201915b5050505050905090565b610dc1610dba611373565b8383611a12565b5050565b600080600090506000610dd6610a6a565b905060005b6003811015610e6457828510158015610e0a5750818160038110610e0257610e01612e73565b5b602002015185105b15610e2c57806002811115610e2257610e216128e6565b5b9350505050610e97565b818160038110610e3f57610e3e612e73565b5b602002015183610e4f9190612ed1565b92508080610e5c90612f05565b915050610ddb565b506040517f12806c9d00000000000000000000000000000000000000000000000000000000815260040160405180910390fd5b919050565b60007f000000000000000000000000000000000000000000000000000000000000000073ffffffffffffffffffffffffffffffffffffffff16635d3b1d307f00000000000000000000000000000000000000000000000000000000000000007f000000000000000000000000000000000000000000000000000000000000000060037f000000000000000000000000000000000000000000000000000000000000000060016040518663ffffffff1660e01b8152600401610f61959493929190612fc5565b6020604051808303816000875af1158015610f80573d6000803e3d6000fd5b505050506040513d601f19601f82011682018060405250810190610fa4919061302d565b905033600a600083815260200190815260200160002060006101000a81548173ffffffffffffffffffffffffffffffffffffffff021916908373ffffffffffffffffffffffffffffffffffffffff160217905550807ff873236e6cc0ecc5be1a9a35c95ee5b8d1ac4cc7bfef0cc5060391d6cc98e26b3360405161102891906124df565b60405180910390a290565b61104461103e611373565b836115d3565b611083576040517f08c379a000000000000000000000000000000000000000000000000000000000815260040161107a90612d0f565b60405180910390fd5b61108f84848484611b7e565b50505050565b60606110a082611328565b60006006600084815260200190815260200160002080546110c090612b1f565b80601f01602080910402602001604051908101604052809291908181526020018280546110ec90612b1f565b80156111395780601f1061110e57610100808354040283529160200191611139565b820191906000526020600020905b81548152906001019060200180831161111c57829003601f168201915b50505050509050600061114a611bda565b9050600081510361115f5781925050506111a2565b60008251111561119457808260405160200161117c929190613096565b604051602081830303815290604052925050506111a2565b61119d84611bf1565b925050505b919050565b6000600560008473ffffffffffffffffffffffffffffffffffffffff1673ffffffffffffffffffffffffffffffffffffffff16815260200190815260200160002060008373ffffffffffffffffffffffffffffffffffffffff1673ffffffffffffffffffffffffffffffffffffffff16815260200190815260200160002060009054906101000a900460ff16905092915050565b6112436118ce565b600073ffffffffffffffffffffffffffffffffffffffff168173ffffffffffffffffffffffffffffffffffffffff16036112b2576040517f08c379a00000000000000000000000000000000000000000000000000000000081526004016112a99061312c565b60405180910390fd5b6112bb8161194c565b50565b60007f01ffc9a7000000000000000000000000000000000000000000000000000000007bffffffffffffffffffffffffffffffffffffffffffffffffffffffff1916827bffffffffffffffffffffffffffffffffffffffffffffffffffffffff1916149050919050565b61133181611c59565b611370576040517f08c379a000000000000000000000000000000000000000000000000000000000815260040161136790612dc1565b60405180910390fd5b50565b600033905090565b816004600083815260200190815260200160002060006101000a81548173ffffffffffffffffffffffffffffffffffffffff021916908373ffffffffffffffffffffffffffffffffffffffff160217905550808273ffffffffffffffffffffffffffffffffffffffff166113ee83610a95565b73ffffffffffffffffffffffffffffffffffffffff167f8c5be1e5ebec7d5bd14f71427d1e84f3dd0314c0f7b2291e5b200ac8c7c3b92560405160405180910390a45050565b6000600a600084815260200190815260200160002060009054906101000a900473ffffffffffffffffffffffffffffffffffffffff169050600060085490506001600860008282546114869190612ed1565b9250508190555060006064846000815181106114a5576114a4612e73565b5b60200260200101516114b7919061317b565b905060006114c482610dc5565b90506114d08484611cc5565b6115928360098360028111156114e9576114e86128e6565b5b815481106114fa576114f9612e73565b5b90600052602060002001805461150f90612b1f565b80601f016020809104026020016040519081016040528092919081815260200182805461153b90612b1f565b80156115885780601f1061155d57610100808354040283529160200191611588565b820191906000526020600020905b81548152906001019060200180831161156b57829003601f168201915b5050505050611ce3565b7f8a269f26b688e110e9cbd887d163dab35cae678fa353a0292de532c0cac1ecdc81856040516115c39291906131ac565b60405180910390a1505050505050565b6000806115df83610a95565b90508073ffffffffffffffffffffffffffffffffffffffff168473ffffffffffffffffffffffffffffffffffffffff161480611621575061162081856111a7565b5b8061165f57508373ffffffffffffffffffffffffffffffffffffffff1661164784610719565b73ffffffffffffffffffffffffffffffffffffffff16145b91505092915050565b8273ffffffffffffffffffffffffffffffffffffffff1661168882610a95565b73ffffffffffffffffffffffffffffffffffffffff16146116de576040517f08c379a00000000000000000000000000000000000000000000000000000000081526004016116d590613247565b60405180910390fd5b600073ffffffffffffffffffffffffffffffffffffffff168273ffffffffffffffffffffffffffffffffffffffff160361174d576040517f08c379a0000000000000000000000000000000000000000000000000000000008152600401611744906132d9565b60405180910390fd5b611758838383611d50565b61176360008261137b565b6001600360008573ffffffffffffffffffffffffffffffffffffffff1673ffffffffffffffffffffffffffffffffffffffff16815260200190815260200160002060008282546117b391906132f9565b925050819055506001600360008473ffffffffffffffffffffffffffffffffffffffff1673ffffffffffffffffffffffffffffffffffffffff168152602001908152602001600020600082825461180a9190612ed1565b92505081905550816002600083815260200190815260200160002060006101000a81548173ffffffffffffffffffffffffffffffffffffffff021916908373ffffffffffffffffffffffffffffffffffffffff160217905550808273ffffffffffffffffffffffffffffffffffffffff168473ffffffffffffffffffffffffffffffffffffffff167fddf252ad1be2c89b69c2b068fc378daa952ba7f163c4a11628f55a4df523b3ef60405160405180910390a46118c9838383611d55565b505050565b6118d6611373565b73ffffffffffffffffffffffffffffffffffffffff166118f4610cf3565b73ffffffffffffffffffffffffffffffffffffffff161461194a576040517f08c379a000000000000000000000000000000000000000000000000000000000815260040161194190613379565b60405180910390fd5b565b6000600760009054906101000a900473ffffffffffffffffffffffffffffffffffffffff16905081600760006101000a81548173ffffffffffffffffffffffffffffffffffffffff021916908373ffffffffffffffffffffffffffffffffffffffff1602179055508173ffffffffffffffffffffffffffffffffffffffff168173ffffffffffffffffffffffffffffffffffffffff167f8be0079c531659141344cd1fd0a4f28419497f9722a3daafe3b4186f6b6457e060405160405180910390a35050565b8173ffffffffffffffffffffffffffffffffffffffff168373ffffffffffffffffffffffffffffffffffffffff1603611a80576040517f08c379a0000000000000000000000000000000000000000000000000000000008152600401611a77906133e5565b60405180910390fd5b80600560008573ffffffffffffffffffffffffffffffffffffffff1673ffffffffffffffffffffffffffffffffffffffff16815260200190815260200160002060008473ffffffffffffffffffffffffffffffffffffffff1673ffffffffffffffffffffffffffffffffffffffff16815260200190815260200160002060006101000a81548160ff0219169083151502179055508173ffffffffffffffffffffffffffffffffffffffff168373ffffffffffffffffffffffffffffffffffffffff167f17307eab39ab6107e8899845ad3d59bd9653f200f220920489ca2b5937696c3183604051611b71919061236e565b60405180910390a3505050565b611b89848484611668565b611b9584848484611d5a565b611bd4576040517f08c379a0000000000000000000000000000000000000000000000000000000008152600401611bcb90613477565b60405180910390fd5b50505050565b606060405180602001604052806000815250905090565b6060611bfc82611328565b6000611c06611bda565b90506000815111611c265760405180602001604052806000815250611c51565b80611c3084611ee1565b604051602001611c41929190613096565b6040516020818303038152906040525b915050919050565b60008073ffffffffffffffffffffffffffffffffffffffff166002600084815260200190815260200160002060009054906101000a900473ffffffffffffffffffffffffffffffffffffffff1673ffffffffffffffffffffffffffffffffffffffff1614159050919050565b611cdf828260405180602001604052806000815250612041565b5050565b611cec82611c59565b611d2b576040517f08c379a0000000000000000000000000000000000000000000000000000000008152600401611d2290613509565b60405180910390fd5b80600660008481526020019081526020016000209081611d4b91906136d5565b505050565b505050565b505050565b6000611d7b8473ffffffffffffffffffffffffffffffffffffffff1661209c565b15611ed4578373ffffffffffffffffffffffffffffffffffffffff1663150b7a02611da4611373565b8786866040518563ffffffff1660e01b8152600401611dc694939291906137fc565b6020604051808303816000875af1925050508015611e0257506040513d601f19601f82011682018060405250810190611dff919061385d565b60015b611e84573d8060008114611e32576040519150601f19603f3d011682016040523d82523d6000602084013e611e37565b606091505b506000815103611e7c576040517f08c379a0000000000000000000000000000000000000000000000000000000008152600401611e7390613477565b60405180910390fd5b805181602001fd5b63150b7a0260e01b7bffffffffffffffffffffffffffffffffffffffffffffffffffffffff1916817bffffffffffffffffffffffffffffffffffffffffffffffffffffffff191614915050611ed9565b600190505b949350505050565b606060008203611f28576040518060400160405280600181526020017f3000000000000000000000000000000000000000000000000000000000000000815250905061203c565b600082905060005b60008214611f5a578080611f4390612f05565b915050600a82611f53919061388a565b9150611f30565b60008167ffffffffffffffff811115611f7657611f7561256b565b5b6040519080825280601f01601f191660200182016040528015611fa85781602001600182028036833780820191505090505b5090505b6000851461203557600182611fc191906132f9565b9150600a85611fd0919061317b565b6030611fdc9190612ed1565b60f81b818381518110611ff257611ff1612e73565b5b60200101907effffffffffffffffffffffffffffffffffffffffffffffffffffffffffffff1916908160001a905350600a8561202e919061388a565b9450611fac565b8093505050505b919050565b61204b83836120bf565b6120586000848484611d5a565b612097576040517f08c379a000000000000000000000000000000000000000000000000000000000815260040161208e90613477565b60405180910390fd5b505050565b6000808273ffffffffffffffffffffffffffffffffffffffff163b119050919050565b600073ffffffffffffffffffffffffffffffffffffffff168273ffffffffffffffffffffffffffffffffffffffff160361212e576040517f08c379a000000000000000000000000000000000000000000000000000000000815260040161212590613907565b60405180910390fd5b61213781611c59565b15612177576040517f08c379a000000000000000000000000000000000000000000000000000000000815260040161216e90613973565b60405180910390fd5b61218360008383611d50565b6001600360008473ffffffffffffffffffffffffffffffffffffffff1673ffffffffffffffffffffffffffffffffffffffff16815260200190815260200160002060008282546121d39190612ed1565b92505081905550816002600083815260200190815260200160002060006101000a81548173ffffffffffffffffffffffffffffffffffffffff021916908373ffffffffffffffffffffffffffffffffffffffff160217905550808273ffffffffffffffffffffffffffffffffffffffff16600073ffffffffffffffffffffffffffffffffffffffff167fddf252ad1be2c89b69c2b068fc378daa952ba7f163c4a11628f55a4df523b3ef60405160405180910390a461229460008383611d55565b5050565b6040518060600160405280600390602082028036833780820191505090505090565b6000604051905090565b600080fd5b600080fd5b60007fffffffff0000000000000000000000000000000000000000000000000000000082169050919050565b612303816122ce565b811461230e57600080fd5b50565b600081359050612320816122fa565b92915050565b60006020828403121561233c5761233b6122c4565b5b600061234a84828501612311565b91505092915050565b60008115159050919050565b61236881612353565b82525050565b6000602082019050612383600083018461235f565b92915050565b600081519050919050565b600082825260208201905092915050565b60005b838110156123c35780820151818401526020810190506123a8565b60008484015250505050565b6000601f19601f8301169050919050565b60006123eb82612389565b6123f58185612394565b93506124058185602086016123a5565b61240e816123cf565b840191505092915050565b6000602082019050818103600083015261243381846123e0565b905092915050565b6000819050919050565b61244e8161243b565b811461245957600080fd5b50565b60008135905061246b81612445565b92915050565b600060208284031215612487576124866122c4565b5b60006124958482850161245c565b91505092915050565b600073ffffffffffffffffffffffffffffffffffffffff82169050919050565b60006124c98261249e565b9050919050565b6124d9816124be565b82525050565b60006020820190506124f460008301846124d0565b92915050565b612503816124be565b811461250e57600080fd5b50565b600081359050612520816124fa565b92915050565b6000806040838503121561253d5761253c6122c4565b5b600061254b85828601612511565b925050602061255c8582860161245c565b9150509250929050565b600080fd5b7f4e487b7100000000000000000000000000000000000000000000000000000000600052604160045260246000fd5b6125a3826123cf565b810181811067ffffffffffffffff821117156125c2576125c161256b565b5b80604052505050565b60006125d56122ba565b90506125e1828261259a565b919050565b600067ffffffffffffffff8211156126015761260061256b565b5b602082029050602081019050919050565b600080fd5b600061262a612625846125e6565b6125cb565b9050808382526020820190506020840283018581111561264d5761264c612612565b5b835b818110156126765780612662888261245c565b84526020840193505060208101905061264f565b5050509392505050565b600082601f83011261269557612694612566565b5b81356126a5848260208601612617565b91505092915050565b600080604083850312156126c5576126c46122c4565b5b60006126d38582860161245c565b925050602083013567ffffffffffffffff8111156126f4576126f36122c9565b5b61270085828601612680565b9150509250929050565b600080600060608486031215612723576127226122c4565b5b600061273186828701612511565b935050602061274286828701612511565b92505060406127538682870161245c565b9150509250925092565b600060039050919050565b600081905092915050565b6000819050919050565b6127868161243b565b82525050565b6000612798838361277d565b60208301905092915050565b6000602082019050919050565b6127ba8161275d565b6127c48184612768565b92506127cf82612773565b8060005b838110156128005781516127e7878261278c565b96506127f2836127a4565b9250506001810190506127d3565b505050505050565b600060608201905061281d60008301846127b1565b92915050565b61282c8161243b565b82525050565b60006020820190506128476000830184612823565b92915050565b600060208284031215612863576128626122c4565b5b600061287184828501612511565b91505092915050565b61288381612353565b811461288e57600080fd5b50565b6000813590506128a08161287a565b92915050565b600080604083850312156128bd576128bc6122c4565b5b60006128cb85828601612511565b92505060206128dc85828601612891565b9150509250929050565b7f4e487b7100000000000000000000000000000000000000000000000000000000600052602160045260246000fd5b60038110612926576129256128e6565b5b50565b600081905061293782612915565b919050565b600061294782612929565b9050919050565b6129578161293c565b82525050565b6000602082019050612972600083018461294e565b92915050565b600080fd5b600067ffffffffffffffff8211156129985761299761256b565b5b6129a1826123cf565b9050602081019050919050565b82818337600083830152505050565b60006129d06129cb8461297d565b6125cb565b9050828152602081018484840111156129ec576129eb612978565b5b6129f78482856129ae565b509392505050565b600082601f830112612a1457612a13612566565b5b8135612a248482602086016129bd565b91505092915050565b60008060008060808587031215612a4757612a466122c4565b5b6000612a5587828801612511565b9450506020612a6687828801612511565b9350506040612a778782880161245c565b925050606085013567ffffffffffffffff811115612a9857612a976122c9565b5b612aa4878288016129ff565b91505092959194509250565b60008060408385031215612ac757612ac66122c4565b5b6000612ad585828601612511565b9250506020612ae685828601612511565b9150509250929050565b7f4e487b7100000000000000000000000000000000000000000000000000000000600052602260045260246000fd5b60006002820490506001821680612b3757607f821691505b602082108103612b4a57612b49612af0565b5b50919050565b7f4552433732313a20617070726f76616c20746f2063757272656e74206f776e6560008201527f7200000000000000000000000000000000000000000000000000000000000000602082015250565b6000612bac602183612394565b9150612bb782612b50565b604082019050919050565b60006020820190508181036000830152612bdb81612b9f565b9050919050565b7f4552433732313a20617070726f76652063616c6c6572206973206e6f7420746f60008201527f6b656e206f776e6572206e6f7220617070726f76656420666f7220616c6c0000602082015250565b6000612c3e603e83612394565b9150612c4982612be2565b604082019050919050565b60006020820190508181036000830152612c6d81612c31565b9050919050565b6000604082019050612c8960008301856124d0565b612c9660208301846124d0565b9392505050565b7f4552433732313a2063616c6c6572206973206e6f7420746f6b656e206f776e6560008201527f72206e6f7220617070726f766564000000000000000000000000000000000000602082015250565b6000612cf9602e83612394565b9150612d0482612c9d565b604082019050919050565b60006020820190508181036000830152612d2881612cec565b9050919050565b600081905092915050565b50565b6000612d4a600083612d2f565b9150612d5582612d3a565b600082019050919050565b6000612d6b82612d3d565b9150819050919050565b7f4552433732313a20696e76616c696420746f6b656e2049440000000000000000600082015250565b6000612dab601883612394565b9150612db682612d75565b602082019050919050565b60006020820190508181036000830152612dda81612d9e565b9050919050565b7f4552433732313a2061646472657373207a65726f206973206e6f74206120766160008201527f6c6964206f776e65720000000000000000000000000000000000000000000000602082015250565b6000612e3d602983612394565b9150612e4882612de1565b604082019050919050565b60006020820190508181036000830152612e6c81612e30565b9050919050565b7f4e487b7100000000000000000000000000000000000000000000000000000000600052603260045260246000fd5b7f4e487b7100000000000000000000000000000000000000000000000000000000600052601160045260246000fd5b6000612edc8261243b565b9150612ee78361243b565b9250828201905080821115612eff57612efe612ea2565b5b92915050565b6000612f108261243b565b91507fffffffffffffffffffffffffffffffffffffffffffffffffffffffffffffffff8203612f4257612f41612ea2565b5b600182019050919050565b6000819050919050565b612f6081612f4d565b82525050565b600067ffffffffffffffff82169050919050565b612f8381612f66565b82525050565b600061ffff82169050919050565b612fa081612f89565b82525050565b600063ffffffff82169050919050565b612fbf81612fa6565b82525050565b600060a082019050612fda6000830188612f57565b612fe76020830187612f7a565b612ff46040830186612f97565b6130016060830185612fb6565b61300e6080830184612fb6565b9695505050505050565b60008151905061302781612445565b92915050565b600060208284031215613043576130426122c4565b5b600061305184828501613018565b91505092915050565b600081905092915050565b600061307082612389565b61307a818561305a565b935061308a8185602086016123a5565b80840191505092915050565b60006130a28285613065565b91506130ae8284613065565b91508190509392505050565b7f4f776e61626c653a206e6577206f776e657220697320746865207a65726f206160008201527f6464726573730000000000000000000000000000000000000000000000000000602082015250565b6000613116602683612394565b9150613121826130ba565b604082019050919050565b6000602082019050818103600083015261314581613109565b9050919050565b7f4e487b7100000000000000000000000000000000000000000000000000000000600052601260045260246000fd5b60006131868261243b565b91506131918361243b565b9250826131a1576131a061314c565b5b828206905092915050565b60006040820190506131c1600083018561294e565b6131ce60208301846124d0565b9392505050565b7f4552433732313a207472616e736665722066726f6d20696e636f72726563742060008201527f6f776e6572000000000000000000000000000000000000000000000000000000602082015250565b6000613231602583612394565b915061323c826131d5565b604082019050919050565b6000602082019050818103600083015261326081613224565b9050919050565b7f4552433732313a207472616e7366657220746f20746865207a65726f2061646460008201527f7265737300000000000000000000000000000000000000000000000000000000602082015250565b60006132c3602483612394565b91506132ce82613267565b604082019050919050565b600060208201905081810360008301526132f2816132b6565b9050919050565b60006133048261243b565b915061330f8361243b565b925082820390508181111561332757613326612ea2565b5b92915050565b7f4f776e61626c653a2063616c6c6572206973206e6f7420746865206f776e6572600082015250565b6000613363602083612394565b915061336e8261332d565b602082019050919050565b6000602082019050818103600083015261339281613356565b9050919050565b7f4552433732313a20617070726f766520746f2063616c6c657200000000000000600082015250565b60006133cf601983612394565b91506133da82613399565b602082019050919050565b600060208201905081810360008301526133fe816133c2565b9050919050565b7f4552433732313a207472616e7366657220746f206e6f6e20455243373231526560008201527f63656976657220696d706c656d656e7465720000000000000000000000000000602082015250565b6000613461603283612394565b915061346c82613405565b604082019050919050565b6000602082019050818103600083015261349081613454565b9050919050565b7f45524337323155524953746f726167653a2055524920736574206f66206e6f6e60008201527f6578697374656e7420746f6b656e000000000000000000000000000000000000602082015250565b60006134f3602e83612394565b91506134fe82613497565b604082019050919050565b60006020820190508181036000830152613522816134e6565b9050919050565b60008190508160005260206000209050919050565b60006020601f8301049050919050565b600082821b905092915050565b60006008830261358b7fffffffffffffffffffffffffffffffffffffffffffffffffffffffffffffffff8261354e565b613595868361354e565b95508019841693508086168417925050509392505050565b6000819050919050565b60006135d26135cd6135c88461243b565b6135ad565b61243b565b9050919050565b6000819050919050565b6135ec836135b7565b6136006135f8826135d9565b84845461355b565b825550505050565b600090565b613615613608565b6136208184846135e3565b505050565b5b818110156136445761363960008261360d565b600181019050613626565b5050565b601f8211156136895761365a81613529565b6136638461353e565b81016020851015613672578190505b61368661367e8561353e565b830182613625565b50505b505050565b600082821c905092915050565b60006136ac6000198460080261368e565b1980831691505092915050565b60006136c5838361369b565b9150826002028217905092915050565b6136de82612389565b67ffffffffffffffff8111156136f7576136f661256b565b5b6137018254612b1f565b61370c828285613648565b600060209050601f83116001811461373f576000841561372d578287015190505b61373785826136b9565b86555061379f565b601f19841661374d86613529565b60005b8281101561377557848901518255600182019150602085019450602081019050613750565b86831015613792578489015161378e601f89168261369b565b8355505b6001600288020188555050505b505050505050565b600081519050919050565b600082825260208201905092915050565b60006137ce826137a7565b6137d881856137b2565b93506137e88185602086016123a5565b6137f1816123cf565b840191505092915050565b600060808201905061381160008301876124d0565b61381e60208301866124d0565b61382b6040830185612823565b818103606083015261383d81846137c3565b905095945050505050565b600081519050613857816122fa565b92915050565b600060208284031215613873576138726122c4565b5b600061388184828501613848565b91505092915050565b60006138958261243b565b91506138a08361243b565b9250826138b0576138af61314c565b5b828204905092915050565b7f4552433732313a206d696e7420746f20746865207a65726f2061646472657373600082015250565b60006138f1602083612394565b91506138fc826138bb565b602082019050919050565b60006020820190508181036000830152613920816138e4565b9050919050565b7f4552433732313a20746f6b656e20616c7265616479206d696e74656400000000600082015250565b600061395d601c83612394565b915061396882613927565b602082019050919050565b6000602082019050818103600083015261398c81613950565b905091905056fea26469706673582212207a82b65b5de524523000fc1608f4c23cb459640fcba2456ac0a99b527ca5b9c764736f6c63430008110033",
  "devdoc": {
    "kind": "dev",
    "methods": {
      "approve(address,uint256)": {
        "details": "See {IERC721-approve}."
      },
      "balanceOf(address)": {
        "details": "See {IERC721-balanceOf}."
      },
      "getApproved(uint256)": {
        "details": "See {IERC721-getApproved}."
      },
      "isApprovedForAll(address,address)": {
        "details": "See {IERC721-isApprovedForAll}."
      },
      "name()": {
        "details": "See {IERC721Metadata-name}."
      },
      "owner()": {
        "details": "Returns the address of the current owner."
      },
      "ownerOf(uint256)": {
        "details": "See {IERC721-ownerOf}."
      },
      "renounceOwnership()": {
        "details": "Leaves the contract without owner. It will not be possible to call `onlyOwner` functions anymore. Can only be called by the current owner. NOTE: Renouncing ownership will leave the contract without an owner, thereby removing any functionality that is only available to the owner."
      },
      "safeTransferFrom(address,address,uint256)": {
        "details": "See {IERC721-safeTransferFrom}."
      },
      "safeTransferFrom(address,address,uint256,bytes)": {
        "details": "See {IERC721-safeTransferFrom}."
      },
      "setApprovalForAll(address,bool)": {
        "details": "See {IERC721-setApprovalForAll}."
      },
      "supportsInterface(bytes4)": {
        "details": "See {IERC165-supportsInterface}."
      },
      "symbol()": {
        "details": "See {IERC721Metadata-symbol}."
      },
      "tokenURI(uint256)": {
        "details": "See {IERC721Metadata-tokenURI}."
      },
      "transferFrom(address,address,uint256)": {
        "details": "See {IERC721-transferFrom}."
      },
      "transferOwnership(address)": {
        "details": "Transfers ownership of the contract to a new account (`newOwner`). Can only be called by the current owner."
      }
    },
    "version": 1
  },
  "userdoc": {
    "kind": "user",
    "methods": {},
    "version": 1
  },
  "storageLayout": {
    "storage": [
      {
        "astId": 292,
        "contract": "contracts/RandomIpfsNft.sol:RandomIpfsNft",
        "label": "_name",
        "offset": 0,
        "slot": "0",
        "type": "t_string_storage"
      },
      {
        "astId": 294,
        "contract": "contracts/RandomIpfsNft.sol:RandomIpfsNft",
        "label": "_symbol",
        "offset": 0,
        "slot": "1",
        "type": "t_string_storage"
      },
      {
        "astId": 298,
        "contract": "contracts/RandomIpfsNft.sol:RandomIpfsNft",
        "label": "_owners",
        "offset": 0,
        "slot": "2",
        "type": "t_mapping(t_uint256,t_address)"
      },
      {
        "astId": 302,
        "contract": "contracts/RandomIpfsNft.sol:RandomIpfsNft",
        "label": "_balances",
        "offset": 0,
        "slot": "3",
        "type": "t_mapping(t_address,t_uint256)"
      },
      {
        "astId": 306,
        "contract": "contracts/RandomIpfsNft.sol:RandomIpfsNft",
        "label": "_tokenApprovals",
        "offset": 0,
        "slot": "4",
        "type": "t_mapping(t_uint256,t_address)"
      },
      {
        "astId": 312,
        "contract": "contracts/RandomIpfsNft.sol:RandomIpfsNft",
        "label": "_operatorApprovals",
        "offset": 0,
        "slot": "5",
        "type": "t_mapping(t_address,t_mapping(t_address,t_bool))"
      },
      {
        "astId": 1280,
        "contract": "contracts/RandomIpfsNft.sol:RandomIpfsNft",
        "label": "_tokenURIs",
        "offset": 0,
        "slot": "6",
        "type": "t_mapping(t_uint256,t_string_storage)"
      },
      {
        "astId": 161,
        "contract": "contracts/RandomIpfsNft.sol:RandomIpfsNft",
        "label": "_owner",
        "offset": 0,
        "slot": "7",
        "type": "t_address"
      },
      {
        "astId": 2039,
        "contract": "contracts/RandomIpfsNft.sol:RandomIpfsNft",
        "label": "s_tokenCounter",
        "offset": 0,
        "slot": "8",
        "type": "t_uint256"
      },
      {
        "astId": 2051,
        "contract": "contracts/RandomIpfsNft.sol:RandomIpfsNft",
        "label": "s_dogTokenUris",
        "offset": 0,
        "slot": "9",
        "type": "t_array(t_string_storage)dyn_storage"
      },
      {
        "astId": 2055,
        "contract": "contracts/RandomIpfsNft.sol:RandomIpfsNft",
        "label": "s_requestIdToSender",
        "offset": 0,
        "slot": "10",
        "type": "t_mapping(t_uint256,t_address)"
      }
    ],
    "types": {
      "t_address": {
        "encoding": "inplace",
        "label": "address",
        "numberOfBytes": "20"
      },
      "t_array(t_string_storage)dyn_storage": {
        "base": "t_string_storage",
        "encoding": "dynamic_array",
        "label": "string[]",
        "numberOfBytes": "32"
      },
      "t_bool": {
        "encoding": "inplace",
        "label": "bool",
        "numberOfBytes": "1"
      },
      "t_mapping(t_address,t_bool)": {
        "encoding": "mapping",
        "key": "t_address",
        "label": "mapping(address => bool)",
        "numberOfBytes": "32",
        "value": "t_bool"
      },
      "t_mapping(t_address,t_mapping(t_address,t_bool))": {
        "encoding": "mapping",
        "key": "t_address",
        "label": "mapping(address => mapping(address => bool))",
        "numberOfBytes": "32",
        "value": "t_mapping(t_address,t_bool)"
      },
      "t_mapping(t_address,t_uint256)": {
        "encoding": "mapping",
        "key": "t_address",
        "label": "mapping(address => uint256)",
        "numberOfBytes": "32",
        "value": "t_uint256"
      },
      "t_mapping(t_uint256,t_address)": {
        "encoding": "mapping",
        "key": "t_uint256",
        "label": "mapping(uint256 => address)",
        "numberOfBytes": "32",
        "value": "t_address"
      },
      "t_mapping(t_uint256,t_string_storage)": {
        "encoding": "mapping",
        "key": "t_uint256",
        "label": "mapping(uint256 => string)",
        "numberOfBytes": "32",
        "value": "t_string_storage"
      },
      "t_string_storage": {
        "encoding": "bytes",
        "label": "string",
        "numberOfBytes": "32"
      },
      "t_uint256": {
        "encoding": "inplace",
        "label": "uint256",
        "numberOfBytes": "32"
      }
    }
  }
}