{
  "address": "0xCf7Ed3AccA5a467e9e704C703E8D87F634fB0Fc9",
  "abi": [
    {
      "inputs": [
        {
          "internalType": "contract IVotes",
          "name": "_token",
          "type": "address"
        },
        {
          "internalType": "contract TimelockController",
          "name": "_timelock",
          "type": "address"
        },
        {
          "internalType": "uint256",
          "name": "_votingDelay",
          "type": "uint256"
        },
        {
          "internalType": "uint256",
          "name": "_votingPeriod",
          "type": "uint256"
        },
        {
          "internalType": "uint256",
          "name": "_quorumPercentage",
          "type": "uint256"
        }
      ],
      "stateMutability": "nonpayable",
      "type": "constructor"
    },
    {
      "inputs": [],
      "name": "Empty",
      "type": "error"
    },
    {
      "anonymous": false,
      "inputs": [
        {
          "indexed": false,
          "internalType": "uint256",
          "name": "proposalId",
          "type": "uint256"
        }
      ],
      "name": "ProposalCanceled",
      "type": "event"
    },
    {
      "anonymous": false,
      "inputs": [
        {
          "indexed": false,
          "internalType": "uint256",
          "name": "proposalId",
          "type": "uint256"
        },
        {
          "indexed": false,
          "internalType": "address",
          "name": "proposer",
          "type": "address"
        },
        {
          "indexed": false,
          "internalType": "address[]",
          "name": "targets",
          "type": "address[]"
        },
        {
          "indexed": false,
          "internalType": "uint256[]",
          "name": "values",
          "type": "uint256[]"
        },
        {
          "indexed": false,
          "internalType": "string[]",
          "name": "signatures",
          "type": "string[]"
        },
        {
          "indexed": false,
          "internalType": "bytes[]",
          "name": "calldatas",
          "type": "bytes[]"
        },
        {
          "indexed": false,
          "internalType": "uint256",
          "name": "startBlock",
          "type": "uint256"
        },
        {
          "indexed": false,
          "internalType": "uint256",
          "name": "endBlock",
          "type": "uint256"
        },
        {
          "indexed": false,
          "internalType": "string",
          "name": "description",
          "type": "string"
        }
      ],
      "name": "ProposalCreated",
      "type": "event"
    },
    {
      "anonymous": false,
      "inputs": [
        {
          "indexed": false,
          "internalType": "uint256",
          "name": "proposalId",
          "type": "uint256"
        }
      ],
      "name": "ProposalExecuted",
      "type": "event"
    },
    {
      "anonymous": false,
      "inputs": [
        {
          "indexed": false,
          "internalType": "uint256",
          "name": "proposalId",
          "type": "uint256"
        },
        {
          "indexed": false,
          "internalType": "uint256",
          "name": "eta",
          "type": "uint256"
        }
      ],
      "name": "ProposalQueued",
      "type": "event"
    },
    {
      "anonymous": false,
      "inputs": [
        {
          "indexed": false,
          "internalType": "uint256",
          "name": "oldProposalThreshold",
          "type": "uint256"
        },
        {
          "indexed": false,
          "internalType": "uint256",
          "name": "newProposalThreshold",
          "type": "uint256"
        }
      ],
      "name": "ProposalThresholdSet",
      "type": "event"
    },
    {
      "anonymous": false,
      "inputs": [
        {
          "indexed": false,
          "internalType": "uint256",
          "name": "oldQuorumNumerator",
          "type": "uint256"
        },
        {
          "indexed": false,
          "internalType": "uint256",
          "name": "newQuorumNumerator",
          "type": "uint256"
        }
      ],
      "name": "QuorumNumeratorUpdated",
      "type": "event"
    },
    {
      "anonymous": false,
      "inputs": [
        {
          "indexed": false,
          "internalType": "address",
          "name": "oldTimelock",
          "type": "address"
        },
        {
          "indexed": false,
          "internalType": "address",
          "name": "newTimelock",
          "type": "address"
        }
      ],
      "name": "TimelockChange",
      "type": "event"
    },
    {
      "anonymous": false,
      "inputs": [
        {
          "indexed": true,
          "internalType": "address",
          "name": "voter",
          "type": "address"
        },
        {
          "indexed": false,
          "internalType": "uint256",
          "name": "proposalId",
          "type": "uint256"
        },
        {
          "indexed": false,
          "internalType": "uint8",
          "name": "support",
          "type": "uint8"
        },
        {
          "indexed": false,
          "internalType": "uint256",
          "name": "weight",
          "type": "uint256"
        },
        {
          "indexed": false,
          "internalType": "string",
          "name": "reason",
          "type": "string"
        }
      ],
      "name": "VoteCast",
      "type": "event"
    },
    {
      "anonymous": false,
      "inputs": [
        {
          "indexed": true,
          "internalType": "address",
          "name": "voter",
          "type": "address"
        },
        {
          "indexed": false,
          "internalType": "uint256",
          "name": "proposalId",
          "type": "uint256"
        },
        {
          "indexed": false,
          "internalType": "uint8",
          "name": "support",
          "type": "uint8"
        },
        {
          "indexed": false,
          "internalType": "uint256",
          "name": "weight",
          "type": "uint256"
        },
        {
          "indexed": false,
          "internalType": "string",
          "name": "reason",
          "type": "string"
        },
        {
          "indexed": false,
          "internalType": "bytes",
          "name": "params",
          "type": "bytes"
        }
      ],
      "name": "VoteCastWithParams",
      "type": "event"
    },
    {
      "anonymous": false,
      "inputs": [
        {
          "indexed": false,
          "internalType": "uint256",
          "name": "oldVotingDelay",
          "type": "uint256"
        },
        {
          "indexed": false,
          "internalType": "uint256",
          "name": "newVotingDelay",
          "type": "uint256"
        }
      ],
      "name": "VotingDelaySet",
      "type": "event"
    },
    {
      "anonymous": false,
      "inputs": [
        {
          "indexed": false,
          "internalType": "uint256",
          "name": "oldVotingPeriod",
          "type": "uint256"
        },
        {
          "indexed": false,
          "internalType": "uint256",
          "name": "newVotingPeriod",
          "type": "uint256"
        }
      ],
      "name": "VotingPeriodSet",
      "type": "event"
    },
    {
      "inputs": [],
      "name": "BALLOT_TYPEHASH",
      "outputs": [
        {
          "internalType": "bytes32",
          "name": "",
          "type": "bytes32"
        }
      ],
      "stateMutability": "view",
      "type": "function"
    },
    {
      "inputs": [],
      "name": "COUNTING_MODE",
      "outputs": [
        {
          "internalType": "string",
          "name": "",
          "type": "string"
        }
      ],
      "stateMutability": "pure",
      "type": "function"
    },
    {
      "inputs": [],
      "name": "EXTENDED_BALLOT_TYPEHASH",
      "outputs": [
        {
          "internalType": "bytes32",
          "name": "",
          "type": "bytes32"
        }
      ],
      "stateMutability": "view",
      "type": "function"
    },
    {
      "inputs": [
        {
          "internalType": "uint256",
          "name": "proposalId",
          "type": "uint256"
        },
        {
          "internalType": "uint8",
          "name": "support",
          "type": "uint8"
        }
      ],
      "name": "castVote",
      "outputs": [
        {
          "internalType": "uint256",
          "name": "",
          "type": "uint256"
        }
      ],
      "stateMutability": "nonpayable",
      "type": "function"
    },
    {
      "inputs": [
        {
          "internalType": "uint256",
          "name": "proposalId",
          "type": "uint256"
        },
        {
          "internalType": "uint8",
          "name": "support",
          "type": "uint8"
        },
        {
          "internalType": "uint8",
          "name": "v",
          "type": "uint8"
        },
        {
          "internalType": "bytes32",
          "name": "r",
          "type": "bytes32"
        },
        {
          "internalType": "bytes32",
          "name": "s",
          "type": "bytes32"
        }
      ],
      "name": "castVoteBySig",
      "outputs": [
        {
          "internalType": "uint256",
          "name": "",
          "type": "uint256"
        }
      ],
      "stateMutability": "nonpayable",
      "type": "function"
    },
    {
      "inputs": [
        {
          "internalType": "uint256",
          "name": "proposalId",
          "type": "uint256"
        },
        {
          "internalType": "uint8",
          "name": "support",
          "type": "uint8"
        },
        {
          "internalType": "string",
          "name": "reason",
          "type": "string"
        }
      ],
      "name": "castVoteWithReason",
      "outputs": [
        {
          "internalType": "uint256",
          "name": "",
          "type": "uint256"
        }
      ],
      "stateMutability": "nonpayable",
      "type": "function"
    },
    {
      "inputs": [
        {
          "internalType": "uint256",
          "name": "proposalId",
          "type": "uint256"
        },
        {
          "internalType": "uint8",
          "name": "support",
          "type": "uint8"
        },
        {
          "internalType": "string",
          "name": "reason",
          "type": "string"
        },
        {
          "internalType": "bytes",
          "name": "params",
          "type": "bytes"
        }
      ],
      "name": "castVoteWithReasonAndParams",
      "outputs": [
        {
          "internalType": "uint256",
          "name": "",
          "type": "uint256"
        }
      ],
      "stateMutability": "nonpayable",
      "type": "function"
    },
    {
      "inputs": [
        {
          "internalType": "uint256",
          "name": "proposalId",
          "type": "uint256"
        },
        {
          "internalType": "uint8",
          "name": "support",
          "type": "uint8"
        },
        {
          "internalType": "string",
          "name": "reason",
          "type": "string"
        },
        {
          "internalType": "bytes",
          "name": "params",
          "type": "bytes"
        },
        {
          "internalType": "uint8",
          "name": "v",
          "type": "uint8"
        },
        {
          "internalType": "bytes32",
          "name": "r",
          "type": "bytes32"
        },
        {
          "internalType": "bytes32",
          "name": "s",
          "type": "bytes32"
        }
      ],
      "name": "castVoteWithReasonAndParamsBySig",
      "outputs": [
        {
          "internalType": "uint256",
          "name": "",
          "type": "uint256"
        }
      ],
      "stateMutability": "nonpayable",
      "type": "function"
    },
    {
      "inputs": [
        {
          "internalType": "address[]",
          "name": "targets",
          "type": "address[]"
        },
        {
          "internalType": "uint256[]",
          "name": "values",
          "type": "uint256[]"
        },
        {
          "internalType": "bytes[]",
          "name": "calldatas",
          "type": "bytes[]"
        },
        {
          "internalType": "bytes32",
          "name": "descriptionHash",
          "type": "bytes32"
        }
      ],
      "name": "execute",
      "outputs": [
        {
          "internalType": "uint256",
          "name": "",
          "type": "uint256"
        }
      ],
      "stateMutability": "payable",
      "type": "function"
    },
    {
      "inputs": [
        {
          "internalType": "address",
          "name": "account",
          "type": "address"
        },
        {
          "internalType": "uint256",
          "name": "blockNumber",
          "type": "uint256"
        }
      ],
      "name": "getVotes",
      "outputs": [
        {
          "internalType": "uint256",
          "name": "",
          "type": "uint256"
        }
      ],
      "stateMutability": "view",
      "type": "function"
    },
    {
      "inputs": [
        {
          "internalType": "address",
          "name": "account",
          "type": "address"
        },
        {
          "internalType": "uint256",
          "name": "blockNumber",
          "type": "uint256"
        },
        {
          "internalType": "bytes",
          "name": "params",
          "type": "bytes"
        }
      ],
      "name": "getVotesWithParams",
      "outputs": [
        {
          "internalType": "uint256",
          "name": "",
          "type": "uint256"
        }
      ],
      "stateMutability": "view",
      "type": "function"
    },
    {
      "inputs": [
        {
          "internalType": "uint256",
          "name": "proposalId",
          "type": "uint256"
        },
        {
          "internalType": "address",
          "name": "account",
          "type": "address"
        }
      ],
      "name": "hasVoted",
      "outputs": [
        {
          "internalType": "bool",
          "name": "",
          "type": "bool"
        }
      ],
      "stateMutability": "view",
      "type": "function"
    },
    {
      "inputs": [
        {
          "internalType": "address[]",
          "name": "targets",
          "type": "address[]"
        },
        {
          "internalType": "uint256[]",
          "name": "values",
          "type": "uint256[]"
        },
        {
          "internalType": "bytes[]",
          "name": "calldatas",
          "type": "bytes[]"
        },
        {
          "internalType": "bytes32",
          "name": "descriptionHash",
          "type": "bytes32"
        }
      ],
      "name": "hashProposal",
      "outputs": [
        {
          "internalType": "uint256",
          "name": "",
          "type": "uint256"
        }
      ],
      "stateMutability": "pure",
      "type": "function"
    },
    {
      "inputs": [],
      "name": "name",
      "outputs": [
        {
          "internalType": "string",
          "name": "",
          "type": "string"
        }
      ],
      "stateMutability": "view",
      "type": "function"
    },
    {
      "inputs": [
        {
          "internalType": "address",
          "name": "",
          "type": "address"
        },
        {
          "internalType": "address",
          "name": "",
          "type": "address"
        },
        {
          "internalType": "uint256[]",
          "name": "",
          "type": "uint256[]"
        },
        {
          "internalType": "uint256[]",
          "name": "",
          "type": "uint256[]"
        },
        {
          "internalType": "bytes",
          "name": "",
          "type": "bytes"
        }
      ],
      "name": "onERC1155BatchReceived",
      "outputs": [
        {
          "internalType": "bytes4",
          "name": "",
          "type": "bytes4"
        }
      ],
      "stateMutability": "nonpayable",
      "type": "function"
    },
    {
      "inputs": [
        {
          "internalType": "address",
          "name": "",
          "type": "address"
        },
        {
          "internalType": "address",
          "name": "",
          "type": "address"
        },
        {
          "internalType": "uint256",
          "name": "",
          "type": "uint256"
        },
        {
          "internalType": "uint256",
          "name": "",
          "type": "uint256"
        },
        {
          "internalType": "bytes",
          "name": "",
          "type": "bytes"
        }
      ],
      "name": "onERC1155Received",
      "outputs": [
        {
          "internalType": "bytes4",
          "name": "",
          "type": "bytes4"
        }
      ],
      "stateMutability": "nonpayable",
      "type": "function"
    },
    {
      "inputs": [
        {
          "internalType": "address",
          "name": "",
          "type": "address"
        },
        {
          "internalType": "address",
          "name": "",
          "type": "address"
        },
        {
          "internalType": "uint256",
          "name": "",
          "type": "uint256"
        },
        {
          "internalType": "bytes",
          "name": "",
          "type": "bytes"
        }
      ],
      "name": "onERC721Received",
      "outputs": [
        {
          "internalType": "bytes4",
          "name": "",
          "type": "bytes4"
        }
      ],
      "stateMutability": "nonpayable",
      "type": "function"
    },
    {
      "inputs": [
        {
          "internalType": "uint256",
          "name": "proposalId",
          "type": "uint256"
        }
      ],
      "name": "proposalDeadline",
      "outputs": [
        {
          "internalType": "uint256",
          "name": "",
          "type": "uint256"
        }
      ],
      "stateMutability": "view",
      "type": "function"
    },
    {
      "inputs": [
        {
          "internalType": "uint256",
          "name": "proposalId",
          "type": "uint256"
        }
      ],
      "name": "proposalEta",
      "outputs": [
        {
          "internalType": "uint256",
          "name": "",
          "type": "uint256"
        }
      ],
      "stateMutability": "view",
      "type": "function"
    },
    {
      "inputs": [
        {
          "internalType": "uint256",
          "name": "proposalId",
          "type": "uint256"
        }
      ],
      "name": "proposalSnapshot",
      "outputs": [
        {
          "internalType": "uint256",
          "name": "",
          "type": "uint256"
        }
      ],
      "stateMutability": "view",
      "type": "function"
    },
    {
      "inputs": [],
      "name": "proposalThreshold",
      "outputs": [
        {
          "internalType": "uint256",
          "name": "",
          "type": "uint256"
        }
      ],
      "stateMutability": "view",
      "type": "function"
    },
    {
      "inputs": [
        {
          "internalType": "uint256",
          "name": "proposalId",
          "type": "uint256"
        }
      ],
      "name": "proposalVotes",
      "outputs": [
        {
          "internalType": "uint256",
          "name": "againstVotes",
          "type": "uint256"
        },
        {
          "internalType": "uint256",
          "name": "forVotes",
          "type": "uint256"
        },
        {
          "internalType": "uint256",
          "name": "abstainVotes",
          "type": "uint256"
        }
      ],
      "stateMutability": "view",
      "type": "function"
    },
    {
      "inputs": [
        {
          "internalType": "address[]",
          "name": "targets",
          "type": "address[]"
        },
        {
          "internalType": "uint256[]",
          "name": "values",
          "type": "uint256[]"
        },
        {
          "internalType": "bytes[]",
          "name": "calldatas",
          "type": "bytes[]"
        },
        {
          "internalType": "string",
          "name": "description",
          "type": "string"
        }
      ],
      "name": "propose",
      "outputs": [
        {
          "internalType": "uint256",
          "name": "",
          "type": "uint256"
        }
      ],
      "stateMutability": "nonpayable",
      "type": "function"
    },
    {
      "inputs": [
        {
          "internalType": "address[]",
          "name": "targets",
          "type": "address[]"
        },
        {
          "internalType": "uint256[]",
          "name": "values",
          "type": "uint256[]"
        },
        {
          "internalType": "bytes[]",
          "name": "calldatas",
          "type": "bytes[]"
        },
        {
          "internalType": "bytes32",
          "name": "descriptionHash",
          "type": "bytes32"
        }
      ],
      "name": "queue",
      "outputs": [
        {
          "internalType": "uint256",
          "name": "",
          "type": "uint256"
        }
      ],
      "stateMutability": "nonpayable",
      "type": "function"
    },
    {
      "inputs": [
        {
          "internalType": "uint256",
          "name": "blockNumber",
          "type": "uint256"
        }
      ],
      "name": "quorum",
      "outputs": [
        {
          "internalType": "uint256",
          "name": "",
          "type": "uint256"
        }
      ],
      "stateMutability": "view",
      "type": "function"
    },
    {
      "inputs": [],
      "name": "quorumDenominator",
      "outputs": [
        {
          "internalType": "uint256",
          "name": "",
          "type": "uint256"
        }
      ],
      "stateMutability": "view",
      "type": "function"
    },
    {
      "inputs": [
        {
          "internalType": "uint256",
          "name": "blockNumber",
          "type": "uint256"
        }
      ],
      "name": "quorumNumerator",
      "outputs": [
        {
          "internalType": "uint256",
          "name": "",
          "type": "uint256"
        }
      ],
      "stateMutability": "view",
      "type": "function"
    },
    {
      "inputs": [],
      "name": "quorumNumerator",
      "outputs": [
        {
          "internalType": "uint256",
          "name": "",
          "type": "uint256"
        }
      ],
      "stateMutability": "view",
      "type": "function"
    },
    {
      "inputs": [
        {
          "internalType": "address",
          "name": "target",
          "type": "address"
        },
        {
          "internalType": "uint256",
          "name": "value",
          "type": "uint256"
        },
        {
          "internalType": "bytes",
          "name": "data",
          "type": "bytes"
        }
      ],
      "name": "relay",
      "outputs": [],
      "stateMutability": "nonpayable",
      "type": "function"
    },
    {
      "inputs": [
        {
          "internalType": "uint256",
          "name": "newProposalThreshold",
          "type": "uint256"
        }
      ],
      "name": "setProposalThreshold",
      "outputs": [],
      "stateMutability": "nonpayable",
      "type": "function"
    },
    {
      "inputs": [
        {
          "internalType": "uint256",
          "name": "newVotingDelay",
          "type": "uint256"
        }
      ],
      "name": "setVotingDelay",
      "outputs": [],
      "stateMutability": "nonpayable",
      "type": "function"
    },
    {
      "inputs": [
        {
          "internalType": "uint256",
          "name": "newVotingPeriod",
          "type": "uint256"
        }
      ],
      "name": "setVotingPeriod",
      "outputs": [],
      "stateMutability": "nonpayable",
      "type": "function"
    },
    {
      "inputs": [
        {
          "internalType": "uint256",
          "name": "proposalId",
          "type": "uint256"
        }
      ],
      "name": "state",
      "outputs": [
        {
          "internalType": "enum IGovernor.ProposalState",
          "name": "",
          "type": "uint8"
        }
      ],
      "stateMutability": "view",
      "type": "function"
    },
    {
      "inputs": [
        {
          "internalType": "bytes4",
          "name": "interfaceId",
          "type": "bytes4"
        }
      ],
      "name": "supportsInterface",
      "outputs": [
        {
          "internalType": "bool",
          "name": "",
          "type": "bool"
        }
      ],
      "stateMutability": "view",
      "type": "function"
    },
    {
      "inputs": [],
      "name": "timelock",
      "outputs": [
        {
          "internalType": "address",
          "name": "",
          "type": "address"
        }
      ],
      "stateMutability": "view",
      "type": "function"
    },
    {
      "inputs": [],
      "name": "token",
      "outputs": [
        {
          "internalType": "contract IVotes",
          "name": "",
          "type": "address"
        }
      ],
      "stateMutability": "view",
      "type": "function"
    },
    {
      "inputs": [
        {
          "internalType": "uint256",
          "name": "newQuorumNumerator",
          "type": "uint256"
        }
      ],
      "name": "updateQuorumNumerator",
      "outputs": [],
      "stateMutability": "nonpayable",
      "type": "function"
    },
    {
      "inputs": [
        {
          "internalType": "contract TimelockController",
          "name": "newTimelock",
          "type": "address"
        }
      ],
      "name": "updateTimelock",
      "outputs": [],
      "stateMutability": "nonpayable",
      "type": "function"
    },
    {
      "inputs": [],
      "name": "version",
      "outputs": [
        {
          "internalType": "string",
          "name": "",
          "type": "string"
        }
      ],
      "stateMutability": "view",
      "type": "function"
    },
    {
      "inputs": [],
      "name": "votingDelay",
      "outputs": [
        {
          "internalType": "uint256",
          "name": "",
          "type": "uint256"
        }
      ],
      "stateMutability": "view",
      "type": "function"
    },
    {
      "inputs": [],
      "name": "votingPeriod",
      "outputs": [
        {
          "internalType": "uint256",
          "name": "",
          "type": "uint256"
        }
      ],
      "stateMutability": "view",
      "type": "function"
    },
    {
      "stateMutability": "payable",
      "type": "receive"
    }
  ],
  "transactionHash": "0x837e37c7c3ae305752a7e087888d583ac2f6fc7b70b9549f1b25553068d3577d",
  "args": [
    "0x5FbDB2315678afecb367f032d93F642f64180aa3",
    "0x9fE46736679d2D9a65F0992F2272dE9f3c7fa6e0",
    1,
    5,
    4
  ],
  "numDeployments": 1,
  "solcInputHash": "6b5f49d5b914b2bfc8331eb6cf58740c",
  "bytecode": "0x6101606040523480156200001257600080fd5b50604051620045c6380380620045c683398101604081905262000035916200076c565b836004868585856040518060400160405280601081526020016f11dbdd995c9b9bdc90dbdb9d1c9858dd60821b81525080620000766200016a60201b60201c565b815160209283012081519183019190912060e08290526101008190524660a0818152604080517f8b73c3c69bb8fe3d512ecc4cf759cc79239f7b179b0ffacaa9a75d522b39400f818801819052818301969096526060810194909452608080850193909352308483018190528151808603909301835260c09485019091528151919095012090529190915261012052600062000113828262000869565b506200012190508362000185565b6200012c82620001c6565b62000137816200026d565b5050506001600160a01b0316610140526200015281620002ae565b506200015e8162000426565b50505050505062000973565b6040805180820190915260018152603160f81b602082015290565b60045460408051918252602082018390527fc565b045403dc03c2eea82b81a0465edad9e2e7fc4d97e11421c209da93d7a93910160405180910390a1600455565b600081116200022c5760405162461bcd60e51b815260206004820152602760248201527f476f7665726e6f7253657474696e67733a20766f74696e6720706572696f6420604482015266746f6f206c6f7760c81b60648201526084015b60405180910390fd5b60055460408051918252602082018390527f7e3f7f0708a84de9203036abaa450dccc85ad5ff52f78c170f3edb55cf5e8828910160405180910390a1600555565b60065460408051918252602082018390527fccb45da8d5717e6c4544694297c4ba5cf151d455c9bb0ed4fc7a38411bc05461910160405180910390a1600655565b6064811115620003335760405162461bcd60e51b815260206004820152604360248201527f476f7665726e6f72566f74657351756f72756d4672616374696f6e3a2071756f60448201527f72756d4e756d657261746f72206f7665722071756f72756d44656e6f6d696e616064820152623a37b960e91b608482015260a40162000223565b60006200033f6200048f565b90508015801590620003515750600954155b15620003cc5760096000016040518060400160405280600063ffffffff1681526020016200038a84620004be60201b6200145e1760201c565b6001600160e01b0390811690915282546001810184556000938452602093849020835194909301519091166401000000000263ffffffff909316929092179101555b620003e78260096200052d60201b620014cb1790919060201c565b505060408051828152602081018490527f0553476bf02ef2726e8ce5ced78d63e26e602e4a2257b1f559418e24b4633997910160405180910390a15050565b600a54604080516001600160a01b03928316815291831660208301527f08f74ea46ef7894f65eabfb5e6e695de773a000b47c529ab559178069b226401910160405180910390a1600a80546001600160a01b0319166001600160a01b0392909216919091179055565b60095460009015620004b757620004b260096200068960201b620015f61760201c565b905090565b5060085490565b60006001600160e01b03821115620005295760405162461bcd60e51b815260206004820152602760248201527f53616665436173743a2076616c756520646f65736e27742066697420696e20326044820152663234206269747360c81b606482015260840162000223565b5090565b8154600090819081620005408662000689565b905060008211801562000584575043866200055d60018562000935565b815481106200057057620005706200095d565b60009182526020909120015463ffffffff16145b15620005f857620005a085620004be60201b6200145e1760201c565b86620005ae60018562000935565b81548110620005c157620005c16200095d565b9060005260206000200160000160046101000a8154816001600160e01b0302191690836001600160e01b0316021790555062000680565b8560000160405180604001604052806200061d43620006ec60201b620016521760201c565b63ffffffff1681526020016200063e88620004be60201b6200145e1760201c565b6001600160e01b0390811690915282546001810184556000938452602093849020835194909301519091166401000000000263ffffffff909316929092179101555b95939450505050565b80546000908015620006d95782620006a360018362000935565b81548110620006b657620006b66200095d565b60009182526020909120015464010000000090046001600160e01b0316620006dc565b60005b6001600160e01b03169392505050565b600063ffffffff821115620005295760405162461bcd60e51b815260206004820152602660248201527f53616665436173743a2076616c756520646f65736e27742066697420696e203360448201526532206269747360d01b606482015260840162000223565b6001600160a01b03811681146200076957600080fd5b50565b600080600080600060a086880312156200078557600080fd5b8551620007928162000753565b6020870151909550620007a58162000753565b6040870151606088015160809098015196999198509695945092505050565b634e487b7160e01b600052604160045260246000fd5b600181811c90821680620007ef57607f821691505b6020821081036200081057634e487b7160e01b600052602260045260246000fd5b50919050565b601f8211156200086457600081815260208120601f850160051c810160208610156200083f5750805b601f850160051c820191505b8181101562000860578281556001016200084b565b5050505b505050565b81516001600160401b03811115620008855762000885620007c4565b6200089d81620008968454620007da565b8462000816565b602080601f831160018114620008d55760008415620008bc5750858301515b600019600386901b1c1916600185901b17855562000860565b600085815260208120601f198616915b828110156200090657888601518255948401946001909101908401620008e5565b5085821015620009255787850151600019600388901b60f8161c191681555b5050505050600190811b01905550565b818103818111156200095757634e487b7160e01b600052601160045260246000fd5b92915050565b634e487b7160e01b600052603260045260246000fd5b60805160a05160c05160e051610100516101205161014051613bea620009dc6000396000818161087601528181612109015261230a01526000612486015260006124d5015260006124b001526000612409015260006124330152600061245d0152613bea6000f3fe60806040526004361061024a5760003560e01c80637b3c71d311610139578063c28bc2fa116100b6578063ea0217cf1161007a578063ea0217cf146107b8578063eb9019d4146107d8578063ece40cc1146107f8578063f23a6e6114610818578063f8ce560a14610844578063fc0c546a1461086457600080fd5b8063c28bc2fa146106cc578063c59057e4146106ec578063d33219b41461070c578063dd4e2ba51461073e578063deaaa7cc1461078457600080fd5b8063a890c910116100fd578063a890c9101461062b578063ab58fb8e1461064b578063b58131b01461066b578063bc197c8114610680578063c01f9e37146106ac57600080fd5b80637b3c71d3146105a25780637d5e81e2146105c257806397c3d334146105e25780639a802a6d146105f6578063a7713a701461061657600080fd5b80633932abb1116101c757806354fd4d501161018b57806354fd4d50146104f857806356781388146105225780635f398a141461054257806360c4247f1461056257806370b0f6601461058257600080fd5b80633932abb1146103f75780633bccf4fd1461040c5780633e4f49e61461042c5780634385963214610459578063544ffc9c146104a357600080fd5b8063150b7a021161020e578063150b7a021461032c578063160cbed7146103705780632656227d146103905780632d63f693146103a35780632fe3e261146103c357600080fd5b806301ffc9a71461027257806302a251a3146102a757806303420181146102ca57806306f3f9e6146102ea57806306fdde031461030a57600080fd5b3661026d5730610258610898565b6001600160a01b03161461026b57600080fd5b005b600080fd5b34801561027e57600080fd5b5061029261028d366004612d18565b6108b1565b60405190151581526020015b60405180910390f35b3480156102b357600080fd5b506102bc6108c2565b60405190815260200161029e565b3480156102d657600080fd5b506102bc6102e5366004612e56565b6108cd565b3480156102f657600080fd5b5061026b610305366004612efc565b6109c5565b34801561031657600080fd5b5061031f610a58565b60405161029e9190612f65565b34801561033857600080fd5b50610357610347366004612f8d565b630a85bd0160e11b949350505050565b6040516001600160e01b0319909116815260200161029e565b34801561037c57600080fd5b506102bc61038b366004613169565b610aea565b6102bc61039e366004613169565b610cea565b3480156103af57600080fd5b506102bc6103be366004612efc565b610dd7565b3480156103cf57600080fd5b506102bc7fb3b3f3b703cd84ce352197dcff232b1b5d3cfb2025ce47cf04742d0651f1af8881565b34801561040357600080fd5b506102bc610e0e565b34801561041857600080fd5b506102bc6104273660046131f8565b610e19565b34801561043857600080fd5b5061044c610447366004612efc565b610e8f565b60405161029e919061325c565b34801561046557600080fd5b50610292610474366004613284565b60008281526007602090815260408083206001600160a01b038516845260030190915290205460ff1692915050565b3480156104af57600080fd5b506104dd6104be366004612efc565b6000908152600760205260409020805460018201546002909201549092565b6040805193845260208401929092529082015260600161029e565b34801561050457600080fd5b506040805180820190915260018152603160f81b602082015261031f565b34801561052e57600080fd5b506102bc61053d3660046132b4565b610e9a565b34801561054e57600080fd5b506102bc61055d3660046132e0565b610ec3565b34801561056e57600080fd5b506102bc61057d366004612efc565b610f0d565b34801561058e57600080fd5b5061026b61059d366004612efc565b610fa5565b3480156105ae57600080fd5b506102bc6105bd366004613363565b61102c565b3480156105ce57600080fd5b506102bc6105dd3660046133bc565b61107e565b3480156105ee57600080fd5b5060646102bc565b34801561060257600080fd5b506102bc610611366004613470565b611095565b34801561062257600080fd5b506102bc6110ac565b34801561063757600080fd5b5061026b6106463660046134c8565b6110c8565b34801561065757600080fd5b506102bc610666366004612efc565b61114f565b34801561067757600080fd5b506102bc6111e9565b34801561068c57600080fd5b5061035761069b3660046134e5565b63bc197c8160e01b95945050505050565b3480156106b857600080fd5b506102bc6106c7366004612efc565b6111f4565b3480156106d857600080fd5b5061026b6106e7366004613578565b611223565b3480156106f857600080fd5b506102bc610707366004613169565b6112ea565b34801561071857600080fd5b50600a546001600160a01b03165b6040516001600160a01b03909116815260200161029e565b34801561074a57600080fd5b506040805180820190915260208082527f737570706f72743d627261766f2671756f72756d3d666f722c6162737461696e9082015261031f565b34801561079057600080fd5b506102bc7f150214d74d59b7d1e90c73fc22ef3d991dd0a76b046543d4d80ab92d2a50328f81565b3480156107c457600080fd5b5061026b6107d3366004612efc565b611324565b3480156107e457600080fd5b506102bc6107f33660046135bb565b6113ab565b34801561080457600080fd5b5061026b610813366004612efc565b6113cc565b34801561082457600080fd5b506103576108333660046135e7565b63f23a6e6160e01b95945050505050565b34801561085057600080fd5b506102bc61085f366004612efc565b611453565b34801561087057600080fd5b506107267f000000000000000000000000000000000000000000000000000000000000000081565b60006108ac600a546001600160a01b031690565b905090565b60006108bc826116b7565b92915050565b60006108ac60055490565b6000806109716109697fb3b3f3b703cd84ce352197dcff232b1b5d3cfb2025ce47cf04742d0651f1af888c8c8c8c60405161090992919061364f565b60405180910390208b8051906020012060405160200161094e959493929190948552602085019390935260ff9190911660408401526060830152608082015260a00190565b604051602081830303815290604052805190602001206116dc565b86868661172a565b90506109b78a828b8b8b8080601f0160208091040260200160405190810160405280939291908181526020018383808284376000920191909152508d9250611748915050565b9a9950505050505050505050565b6109cd610898565b6001600160a01b0316336001600160a01b031614610a065760405162461bcd60e51b81526004016109fd9061365f565b60405180910390fd5b30610a0f610898565b6001600160a01b031614610a4c5760008036604051610a2f92919061364f565b604051809103902090505b80610a4560026118ad565b03610a3a57505b610a558161192c565b50565b606060008054610a6790613696565b80601f0160208091040260200160405190810160405280929190818152602001828054610a9390613696565b8015610ae05780601f10610ab557610100808354040283529160200191610ae0565b820191906000526020600020905b815481529060010190602001808311610ac357829003601f168201915b5050505050905090565b600080610af9868686866112ea565b90506004610b0682610e8f565b6007811115610b1757610b17613246565b14610b345760405162461bcd60e51b81526004016109fd906136d0565b600a546040805163793d064960e11b815290516000926001600160a01b03169163f27a0c929160048083019260209291908290030181865afa158015610b7e573d6000803e3d6000fd5b505050506040513d601f19601f82011682018060405250810190610ba29190613711565b600a5460405163b1c5f42760e01b81529192506001600160a01b03169063b1c5f42790610bdc908a908a908a906000908b906004016137f3565b602060405180830381865afa158015610bf9573d6000803e3d6000fd5b505050506040513d601f19601f82011682018060405250810190610c1d9190613711565b6000838152600b602052604080822092909255600a5491516308f2a0bb60e41b81526001600160a01b0390921691638f2a0bb091610c68918b918b918b91908b908990600401613841565b600060405180830381600087803b158015610c8257600080fd5b505af1158015610c96573d6000803e3d6000fd5b505050507f9a2e42fd6722813d69113e7d0079d3d940171428df7373df9c7f7617cfda2892828242610cc891906138af565b6040805192835260208301919091520160405180910390a15095945050505050565b600080610cf9868686866112ea565b90506000610d0682610e8f565b90506004816007811115610d1c57610d1c613246565b1480610d3957506005816007811115610d3757610d37613246565b145b610d555760405162461bcd60e51b81526004016109fd906136d0565b600082815260016020818152604092839020600201805460ff191690921790915590518381527f712ae1383f79ac853f8d882153778e0260ef8f03b504e2866e0593e04d2b291f910160405180910390a1610db38288888888611a79565b610dc08288888888611b1a565b610dcd8288888888611b27565b5095945050505050565b60008181526001602090815260408083208151928301909152546001600160401b0316908190525b6001600160401b031692915050565b60006108ac60045490565b604080517f150214d74d59b7d1e90c73fc22ef3d991dd0a76b046543d4d80ab92d2a50328f602082015290810186905260ff851660608201526000908190610e67906109699060800161094e565b9050610e8487828860405180602001604052806000815250611b60565b979650505050505050565b60006108bc82611b83565b600080339050610ebb84828560405180602001604052806000815250611b60565b949350505050565b600080339050610e8487828888888080601f0160208091040260200160405190810160405280939291908181526020018383808284376000920191909152508a9250611748915050565b600954600090808203610f24575050600854919050565b60006009610f336001846138c2565b81548110610f4357610f436138d5565b60009182526020918290206040805180820190915291015463ffffffff81168083526401000000009091046001600160e01b03169282019290925291508410610f9a57602001516001600160e01b03169392505050565b610ebb600985611ccd565b610fad610898565b6001600160a01b0316336001600160a01b031614610fdd5760405162461bcd60e51b81526004016109fd9061365f565b30610fe6610898565b6001600160a01b031614611023576000803660405161100692919061364f565b604051809103902090505b8061101c60026118ad565b0361101157505b610a5581611ddc565b60008033905061107486828787878080601f016020809104026020016040519081016040528093929190818152602001838380828437600092019190915250611b6092505050565b9695505050505050565b600061108c85858585611e1d565b95945050505050565b60006110a28484846120e0565b90505b9392505050565b600954600090156110c1576108ac60096115f6565b5060085490565b6110d0610898565b6001600160a01b0316336001600160a01b0316146111005760405162461bcd60e51b81526004016109fd9061365f565b30611109610898565b6001600160a01b031614611146576000803660405161112992919061364f565b604051809103902090505b8061113f60026118ad565b0361113457505b610a5581612176565b600a546000828152600b602052604080822054905163d45c443560e01b81526004810191909152909182916001600160a01b039091169063d45c443590602401602060405180830381865afa1580156111ac573d6000803e3d6000fd5b505050506040513d601f19601f820116820180604052508101906111d09190613711565b9050806001146111e057806110a5565b60009392505050565b60006108ac60065490565b60008181526001602081815260408084208151928301909152909101546001600160401b031690819052610dff565b61122b610898565b6001600160a01b0316336001600160a01b03161461125b5760405162461bcd60e51b81526004016109fd9061365f565b30611264610898565b6001600160a01b0316146112a1576000803660405161128492919061364f565b604051809103902090505b8061129a60026118ad565b0361128f57505b6112e38483838080601f0160208091040260200160405190810160405280939291908181526020018383808284376000920191909152508892506121df915050565b5050505050565b60008484848460405160200161130394939291906138eb565b60408051601f19818403018152919052805160209091012095945050505050565b61132c610898565b6001600160a01b0316336001600160a01b03161461135c5760405162461bcd60e51b81526004016109fd9061365f565b30611365610898565b6001600160a01b0316146113a2576000803660405161138592919061364f565b604051809103902090505b8061139b60026118ad565b0361139057505b610a5581612205565b60006110a583836113c760408051602081019091526000815290565b6120e0565b6113d4610898565b6001600160a01b0316336001600160a01b0316146114045760405162461bcd60e51b81526004016109fd9061365f565b3061140d610898565b6001600160a01b03161461144a576000803660405161142d92919061364f565b604051809103902090505b8061144360026118ad565b0361143857505b610a55816122a6565b60006108bc826122e7565b60006001600160e01b038211156114c75760405162461bcd60e51b815260206004820152602760248201527f53616665436173743a2076616c756520646f65736e27742066697420696e20326044820152663234206269747360c81b60648201526084016109fd565b5090565b81546000908190816114dc866115f6565b905060008211801561151a575043866114f66001856138c2565b81548110611506576115066138d5565b60009182526020909120015463ffffffff16145b1561157a576115288561145e565b866115346001856138c2565b81548110611544576115446138d5565b9060005260206000200160000160046101000a8154816001600160e01b0302191690836001600160e01b031602179055506115e8565b85600001604051806040016040528061159243611652565b63ffffffff1681526020016115a68861145e565b6001600160e01b0390811690915282546001810184556000938452602093849020835194909301519091166401000000000263ffffffff909316929092179101555b9250839150505b9250929050565b8054600090801561163f578261160d6001836138c2565b8154811061161d5761161d6138d5565b60009182526020909120015464010000000090046001600160e01b0316611642565b60005b6001600160e01b03169392505050565b600063ffffffff8211156114c75760405162461bcd60e51b815260206004820152602660248201527f53616665436173743a2076616c756520646f65736e27742066697420696e203360448201526532206269747360d01b60648201526084016109fd565b60006001600160e01b03198216636e665ced60e01b14806108bc57506108bc82612391565b60006108bc6116e96123fc565b8360405161190160f01b6020820152602281018390526042810182905260009060620160405160208183030381529060405280519060200120905092915050565b600080600061173b87878787612523565b91509150610dcd81612610565b600085815260016020819052604082209061176288610e8f565b600781111561177357611773613246565b146117cc5760405162461bcd60e51b815260206004820152602360248201527f476f7665726e6f723a20766f7465206e6f742063757272656e746c792061637460448201526269766560e81b60648201526084016109fd565b604080516020810190915281546001600160401b0316908190526000906117f5908890866120e0565b905061180488888884886127c6565b835160000361185957866001600160a01b03167fb8e138887d0aa13bab447e82de9d5c1777041ecd21ca36ba824ff1e6c07ddda48988848960405161184c9493929190613936565b60405180910390a2610e84565b866001600160a01b03167fe2babfbac5889a709b63bb7f598b324e08bc5a4fb9ec647fb3cbc9ec07eb8712898884898960405161189a95949392919061395e565b60405180910390a2979650505050505050565b60006118c88254600f81810b600160801b909204900b131590565b156118e657604051631ed9509560e11b815260040160405180910390fd5b508054600f0b6000818152600180840160205260408220805492905583546fffffffffffffffffffffffffffffffff191692016001600160801b03169190911790915590565b60648111156119af5760405162461bcd60e51b815260206004820152604360248201527f476f7665726e6f72566f74657351756f72756d4672616374696f6e3a2071756f60448201527f72756d4e756d657261746f72206f7665722071756f72756d44656e6f6d696e616064820152623a37b960e91b608482015260a4016109fd565b60006119b96110ac565b905080158015906119ca5750600954155b15611a2f576040805180820190915260008152600990602081016119ed8461145e565b6001600160e01b0390811690915282546001810184556000938452602093849020835194909301519091166401000000000263ffffffff909316929092179101555b611a3a6009836114cb565b505060408051828152602081018490527f0553476bf02ef2726e8ce5ced78d63e26e602e4a2257b1f559418e24b4633997910160405180910390a15050565b30611a82610898565b6001600160a01b0316146112e35760005b8451811015611b1257306001600160a01b0316858281518110611ab857611ab86138d5565b60200260200101516001600160a01b031603611b0257611b02838281518110611ae357611ae36138d5565b602002602001015180519060200120600261294090919063ffffffff16565b611b0b816139a4565b9050611a93565b505050505050565b6112e3858585858561297c565b30611b30610898565b6001600160a01b0316146112e357600254600f81810b600160801b909204900b13156112e35760006002556112e3565b600061108c85858585611b7e60408051602081019091526000815290565b611748565b600080611b8f836129f0565b90506004816007811115611ba557611ba5613246565b14611bb05792915050565b6000838152600b602052604090205480611bcb575092915050565b600a54604051632ab0f52960e01b8152600481018390526001600160a01b0390911690632ab0f52990602401602060405180830381865afa158015611c14573d6000803e3d6000fd5b505050506040513d601f19601f82011682018060405250810190611c3891906139bd565b15611c47575060079392505050565b600a54604051632c258a9f60e11b8152600481018390526001600160a01b039091169063584b153e90602401602060405180830381865afa158015611c90573d6000803e3d6000fd5b505050506040513d601f19601f82011682018060405250810190611cb491906139bd565b15611cc3575060059392505050565b5060029392505050565b6000438210611d1e5760405162461bcd60e51b815260206004820181905260248201527f436865636b706f696e74733a20626c6f636b206e6f7420796574206d696e656460448201526064016109fd565b825460005b81811015611d83576000611d378284612aff565b905084866000018281548110611d4f57611d4f6138d5565b60009182526020909120015463ffffffff161115611d6f57809250611d7d565b611d7a8160016138af565b91505b50611d23565b8115611dc75784611d956001846138c2565b81548110611da557611da56138d5565b60009182526020909120015464010000000090046001600160e01b0316611dca565b60005b6001600160e01b031695945050505050565b60045460408051918252602082018390527fc565b045403dc03c2eea82b81a0465edad9e2e7fc4d97e11421c209da93d7a93910160405180910390a1600455565b6000611e276111e9565b611e36336107f36001436138c2565b1015611e9e5760405162461bcd60e51b815260206004820152603160248201527f476f7665726e6f723a2070726f706f73657220766f7465732062656c6f7720706044820152701c9bdc1bdcd85b081d1a1c995cda1bdb19607a1b60648201526084016109fd565b6000611eb386868686805190602001206112ea565b90508451865114611ed65760405162461bcd60e51b81526004016109fd906139df565b8351865114611ef75760405162461bcd60e51b81526004016109fd906139df565b6000865111611f485760405162461bcd60e51b815260206004820152601860248201527f476f7665726e6f723a20656d7074792070726f706f73616c000000000000000060448201526064016109fd565b600081815260016020908152604091829020825191820190925281546001600160401b03169081905215611fc85760405162461bcd60e51b815260206004820152602160248201527f476f7665726e6f723a2070726f706f73616c20616c72656164792065786973746044820152607360f81b60648201526084016109fd565b6000611fda611fd5610e0e565b612b1a565b611fe343612b1a565b611fed9190613a20565b90506000611ffc611fd56108c2565b6120069083613a20565b835467ffffffffffffffff19166001600160401b038416178455905060018301805467ffffffffffffffff19166001600160401b0383161790557f7d84a6263ae0d98d3329bd7b46bb4e8d6f98cd35a7adb45c274c8b7fd5ebd5e084338b8b8d516001600160401b0381111561207e5761207e612d99565b6040519080825280602002602001820160405280156120b157816020015b606081526020019060019003908161209c5790505b508c88888e6040516120cb99989796959493929190613a47565b60405180910390a15091979650505050505050565b604051630748d63560e31b81526001600160a01b038481166004830152602482018490526000917f000000000000000000000000000000000000000000000000000000000000000090911690633a46b1a890604401602060405180830381865afa158015612152573d6000803e3d6000fd5b505050506040513d601f19601f820116820180604052508101906110a29190613711565b600a54604080516001600160a01b03928316815291831660208301527f08f74ea46ef7894f65eabfb5e6e695de773a000b47c529ab559178069b226401910160405180910390a1600a80546001600160a01b0319166001600160a01b0392909216919091179055565b60606110a2848484604051806060016040528060298152602001613b8c60299139612b82565b600081116122655760405162461bcd60e51b815260206004820152602760248201527f476f7665726e6f7253657474696e67733a20766f74696e6720706572696f6420604482015266746f6f206c6f7760c81b60648201526084016109fd565b60055460408051918252602082018390527f7e3f7f0708a84de9203036abaa450dccc85ad5ff52f78c170f3edb55cf5e8828910160405180910390a1600555565b60065460408051918252602082018390527fccb45da8d5717e6c4544694297c4ba5cf151d455c9bb0ed4fc7a38411bc05461910160405180910390a1600655565b600060646122f483610f0d565b604051632394e7a360e21b8152600481018590527f00000000000000000000000000000000000000000000000000000000000000006001600160a01b031690638e539e8c90602401602060405180830381865afa158015612359573d6000803e3d6000fd5b505050506040513d601f19601f8201168201806040525081019061237d9190613711565b6123879190613b36565b6108bc9190613b4d565b60006001600160e01b0319821663bf26d89760e01b14806123c257506001600160e01b031982166379dd796f60e01b145b806123dd57506001600160e01b03198216630271189760e51b145b806108bc57506301ffc9a760e01b6001600160e01b03198316146108bc565b6000306001600160a01b037f00000000000000000000000000000000000000000000000000000000000000001614801561245557507f000000000000000000000000000000000000000000000000000000000000000046145b1561247f57507f000000000000000000000000000000000000000000000000000000000000000090565b50604080517f00000000000000000000000000000000000000000000000000000000000000006020808301919091527f0000000000000000000000000000000000000000000000000000000000000000828401527f000000000000000000000000000000000000000000000000000000000000000060608301524660808301523060a0808401919091528351808403909101815260c0909201909252805191012090565b6000807f7fffffffffffffffffffffffffffffff5d576e7357a4501ddfe92f46681b20a083111561255a5750600090506003612607565b8460ff16601b1415801561257257508460ff16601c14155b156125835750600090506004612607565b6040805160008082526020820180845289905260ff881692820192909252606081018690526080810185905260019060a0016020604051602081039080840390855afa1580156125d7573d6000803e3d6000fd5b5050604051601f1901519150506001600160a01b03811661260057600060019250925050612607565b9150600090505b94509492505050565b600081600481111561262457612624613246565b0361262c5750565b600181600481111561264057612640613246565b0361268d5760405162461bcd60e51b815260206004820152601860248201527f45434453413a20696e76616c6964207369676e6174757265000000000000000060448201526064016109fd565b60028160048111156126a1576126a1613246565b036126ee5760405162461bcd60e51b815260206004820152601f60248201527f45434453413a20696e76616c6964207369676e6174757265206c656e6774680060448201526064016109fd565b600381600481111561270257612702613246565b0361275a5760405162461bcd60e51b815260206004820152602260248201527f45434453413a20696e76616c6964207369676e6174757265202773272076616c604482015261756560f01b60648201526084016109fd565b600481600481111561276e5761276e613246565b03610a555760405162461bcd60e51b815260206004820152602260248201527f45434453413a20696e76616c6964207369676e6174757265202776272076616c604482015261756560f01b60648201526084016109fd565b60008581526007602090815260408083206001600160a01b0388168452600381019092529091205460ff161561284e5760405162461bcd60e51b815260206004820152602760248201527f476f7665726e6f72566f74696e6753696d706c653a20766f746520616c726561604482015266191e4818d85cdd60ca1b60648201526084016109fd565b6001600160a01b03851660009081526003820160205260409020805460ff1916600117905560ff841661289a578281600001600082825461288f91906138af565b90915550611b129050565b60001960ff8516016128ba578281600101600082825461288f91906138af565b60011960ff8516016128da578281600201600082825461288f91906138af565b60405162461bcd60e51b815260206004820152603560248201527f476f7665726e6f72566f74696e6753696d706c653a20696e76616c69642076616044820152746c756520666f7220656e756d20566f74655479706560581b60648201526084016109fd565b8154600160801b90819004600f0b6000818152600180860160205260409091209390935583546001600160801b03908116939091011602179055565b600a5460405163e38335e560e01b81526001600160a01b039091169063e38335e59034906129b79088908890889060009089906004016137f3565b6000604051808303818588803b1580156129d057600080fd5b505af11580156129e4573d6000803e3d6000fd5b50505050505050505050565b6000818152600160205260408120600281015460ff1615612a145750600792915050565b6002810154610100900460ff1615612a2f5750600292915050565b6000612a3a84610dd7565b905080600003612a8c5760405162461bcd60e51b815260206004820152601d60248201527f476f7665726e6f723a20756e6b6e6f776e2070726f706f73616c20696400000060448201526064016109fd565b438110612a9d575060009392505050565b6000612aa8856111f4565b9050438110612abc57506001949350505050565b612ac585612ca8565b8015612ae4575060008581526007602052604090208054600190910154115b15612af457506004949350505050565b506003949350505050565b6000612b0e6002848418613b4d565b6110a5908484166138af565b60006001600160401b038211156114c75760405162461bcd60e51b815260206004820152602660248201527f53616665436173743a2076616c756520646f65736e27742066697420696e203660448201526534206269747360d01b60648201526084016109fd565b606082471015612be35760405162461bcd60e51b815260206004820152602660248201527f416464726573733a20696e73756666696369656e742062616c616e636520666f6044820152651c8818d85b1b60d21b60648201526084016109fd565b6001600160a01b0385163b612c3a5760405162461bcd60e51b815260206004820152601d60248201527f416464726573733a2063616c6c20746f206e6f6e2d636f6e747261637400000060448201526064016109fd565b600080866001600160a01b03168587604051612c569190613b6f565b60006040518083038185875af1925050503d8060008114612c93576040519150601f19603f3d011682016040523d82523d6000602084013e612c98565b606091505b5091509150610e84828286612cdf565b600081815260076020526040812060028101546001820154612cca91906138af565b612cd661085f85610dd7565b11159392505050565b60608315612cee5750816110a5565b825115612cfe5782518084602001fd5b8160405162461bcd60e51b81526004016109fd9190612f65565b600060208284031215612d2a57600080fd5b81356001600160e01b0319811681146110a557600080fd5b803560ff81168114612d5357600080fd5b919050565b60008083601f840112612d6a57600080fd5b5081356001600160401b03811115612d8157600080fd5b6020830191508360208285010111156115ef57600080fd5b634e487b7160e01b600052604160045260246000fd5b604051601f8201601f191681016001600160401b0381118282101715612dd757612dd7612d99565b604052919050565b60006001600160401b03831115612df857612df8612d99565b612e0b601f8401601f1916602001612daf565b9050828152838383011115612e1f57600080fd5b828260208301376000602084830101529392505050565b600082601f830112612e4757600080fd5b6110a583833560208501612ddf565b60008060008060008060008060e0898b031215612e7257600080fd5b88359750612e8260208a01612d42565b965060408901356001600160401b0380821115612e9e57600080fd5b612eaa8c838d01612d58565b909850965060608b0135915080821115612ec357600080fd5b50612ed08b828c01612e36565b945050612edf60808a01612d42565b925060a0890135915060c089013590509295985092959890939650565b600060208284031215612f0e57600080fd5b5035919050565b60005b83811015612f30578181015183820152602001612f18565b50506000910152565b60008151808452612f51816020860160208601612f15565b601f01601f19169290920160200192915050565b6020815260006110a56020830184612f39565b6001600160a01b0381168114610a5557600080fd5b60008060008060808587031215612fa357600080fd5b8435612fae81612f78565b93506020850135612fbe81612f78565b92506040850135915060608501356001600160401b03811115612fe057600080fd5b612fec87828801612e36565b91505092959194509250565b60006001600160401b0382111561301157613011612d99565b5060051b60200190565b600082601f83011261302c57600080fd5b8135602061304161303c83612ff8565b612daf565b82815260059290921b8401810191818101908684111561306057600080fd5b8286015b8481101561308457803561307781612f78565b8352918301918301613064565b509695505050505050565b600082601f8301126130a057600080fd5b813560206130b061303c83612ff8565b82815260059290921b840181019181810190868411156130cf57600080fd5b8286015b8481101561308457803583529183019183016130d3565b600082601f8301126130fb57600080fd5b8135602061310b61303c83612ff8565b82815260059290921b8401810191818101908684111561312a57600080fd5b8286015b848110156130845780356001600160401b0381111561314d5760008081fd5b61315b8986838b0101612e36565b84525091830191830161312e565b6000806000806080858703121561317f57600080fd5b84356001600160401b038082111561319657600080fd5b6131a28883890161301b565b955060208701359150808211156131b857600080fd5b6131c48883890161308f565b945060408701359150808211156131da57600080fd5b506131e7878288016130ea565b949793965093946060013593505050565b600080600080600060a0868803121561321057600080fd5b8535945061322060208701612d42565b935061322e60408701612d42565b94979396509394606081013594506080013592915050565b634e487b7160e01b600052602160045260246000fd5b602081016008831061327e57634e487b7160e01b600052602160045260246000fd5b91905290565b6000806040838503121561329757600080fd5b8235915060208301356132a981612f78565b809150509250929050565b600080604083850312156132c757600080fd5b823591506132d760208401612d42565b90509250929050565b6000806000806000608086880312156132f857600080fd5b8535945061330860208701612d42565b935060408601356001600160401b038082111561332457600080fd5b61333089838a01612d58565b9095509350606088013591508082111561334957600080fd5b5061335688828901612e36565b9150509295509295909350565b6000806000806060858703121561337957600080fd5b8435935061338960208601612d42565b925060408501356001600160401b038111156133a457600080fd5b6133b087828801612d58565b95989497509550505050565b600080600080608085870312156133d257600080fd5b84356001600160401b03808211156133e957600080fd5b6133f58883890161301b565b9550602087013591508082111561340b57600080fd5b6134178883890161308f565b9450604087013591508082111561342d57600080fd5b613439888389016130ea565b9350606087013591508082111561344f57600080fd5b508501601f8101871361346157600080fd5b612fec87823560208401612ddf565b60008060006060848603121561348557600080fd5b833561349081612f78565b92506020840135915060408401356001600160401b038111156134b257600080fd5b6134be86828701612e36565b9150509250925092565b6000602082840312156134da57600080fd5b81356110a581612f78565b600080600080600060a086880312156134fd57600080fd5b853561350881612f78565b9450602086013561351881612f78565b935060408601356001600160401b038082111561353457600080fd5b61354089838a0161308f565b9450606088013591508082111561355657600080fd5b61356289838a0161308f565b9350608088013591508082111561334957600080fd5b6000806000806060858703121561358e57600080fd5b843561359981612f78565b93506020850135925060408501356001600160401b038111156133a457600080fd5b600080604083850312156135ce57600080fd5b82356135d981612f78565b946020939093013593505050565b600080600080600060a086880312156135ff57600080fd5b853561360a81612f78565b9450602086013561361a81612f78565b9350604086013592506060860135915060808601356001600160401b0381111561364357600080fd5b61335688828901612e36565b8183823760009101908152919050565b60208082526018908201527f476f7665726e6f723a206f6e6c79476f7665726e616e63650000000000000000604082015260600190565b600181811c908216806136aa57607f821691505b6020821081036136ca57634e487b7160e01b600052602260045260246000fd5b50919050565b60208082526021908201527f476f7665726e6f723a2070726f706f73616c206e6f74207375636365737366756040820152601b60fa1b606082015260800190565b60006020828403121561372357600080fd5b5051919050565b600081518084526020808501945080840160005b838110156137635781516001600160a01b03168752958201959082019060010161373e565b509495945050505050565b600081518084526020808501945080840160005b8381101561376357815187529582019590820190600101613782565b600081518084526020808501808196508360051b8101915082860160005b858110156137e65782840389526137d4848351612f39565b988501989350908401906001016137bc565b5091979650505050505050565b60a08152600061380660a083018861372a565b8281036020840152613818818861376e565b9050828103604084015261382c818761379e565b60608401959095525050608001529392505050565b60c08152600061385460c083018961372a565b8281036020840152613866818961376e565b9050828103604084015261387a818861379e565b60608401969096525050608081019290925260a0909101529392505050565b634e487b7160e01b600052601160045260246000fd5b808201808211156108bc576108bc613899565b818103818111156108bc576108bc613899565b634e487b7160e01b600052603260045260246000fd5b6080815260006138fe608083018761372a565b8281036020840152613910818761376e565b90508281036040840152613924818661379e565b91505082606083015295945050505050565b84815260ff841660208201528260408201526080606082015260006110746080830184612f39565b85815260ff8516602082015283604082015260a06060820152600061398660a0830185612f39565b82810360808401526139988185612f39565b98975050505050505050565b6000600182016139b6576139b6613899565b5060010190565b6000602082840312156139cf57600080fd5b815180151581146110a557600080fd5b60208082526021908201527f476f7665726e6f723a20696e76616c69642070726f706f73616c206c656e67746040820152600d60fb1b606082015260800190565b6001600160401b03818116838216019080821115613a4057613a40613899565b5092915050565b60006101208b8352602060018060a01b038c1681850152816040850152613a708285018c61372a565b91508382036060850152613a84828b61376e565b915083820360808501528189518084528284019150828160051b850101838c0160005b83811015613ad557601f19878403018552613ac3838351612f39565b94860194925090850190600101613aa7565b505086810360a0880152613ae9818c61379e565b945050505050613b0460c08401876001600160401b03169052565b6001600160401b03851660e0840152828103610100840152613b268185612f39565b9c9b505050505050505050505050565b80820281158282048414176108bc576108bc613899565b600082613b6a57634e487b7160e01b600052601260045260246000fd5b500490565b60008251613b81818460208701612f15565b919091019291505056fe416464726573733a206c6f772d6c6576656c2063616c6c20776974682076616c7565206661696c6564a26469706673582212209a31633e3eaa08fd1589df5f2a332631e8888195181afb9e51f789fe74e2936a64736f6c63430008110033",
  "devdoc": {
    "errors": {
      "Empty()": [
        {
          "details": "An operation (e.g. {front}) couldn't be completed due to the queue being empty."
        }
      ]
    },
    "kind": "dev",
    "methods": {
      "COUNTING_MODE()": {
        "details": "See {IGovernor-COUNTING_MODE}."
      },
      "castVote(uint256,uint8)": {
        "details": "See {IGovernor-castVote}."
      },
      "castVoteBySig(uint256,uint8,uint8,bytes32,bytes32)": {
        "details": "See {IGovernor-castVoteBySig}."
      },
      "castVoteWithReason(uint256,uint8,string)": {
        "details": "See {IGovernor-castVoteWithReason}."
      },
      "castVoteWithReasonAndParams(uint256,uint8,string,bytes)": {
        "details": "See {IGovernor-castVoteWithReasonAndParams}."
      },
      "castVoteWithReasonAndParamsBySig(uint256,uint8,string,bytes,uint8,bytes32,bytes32)": {
        "details": "See {IGovernor-castVoteWithReasonAndParamsBySig}."
      },
      "execute(address[],uint256[],bytes[],bytes32)": {
        "details": "See {IGovernor-execute}."
      },
      "getVotes(address,uint256)": {
        "details": "See {IGovernor-getVotes}."
      },
      "getVotesWithParams(address,uint256,bytes)": {
        "details": "See {IGovernor-getVotesWithParams}."
      },
      "hasVoted(uint256,address)": {
        "details": "See {IGovernor-hasVoted}."
      },
      "hashProposal(address[],uint256[],bytes[],bytes32)": {
        "details": "See {IGovernor-hashProposal}. The proposal id is produced by hashing the ABI encoded `targets` array, the `values` array, the `calldatas` array and the descriptionHash (bytes32 which itself is the keccak256 hash of the description string). This proposal id can be produced from the proposal data which is part of the {ProposalCreated} event. It can even be computed in advance, before the proposal is submitted. Note that the chainId and the governor address are not part of the proposal id computation. Consequently, the same proposal (with same operation and same description) will have the same id if submitted on multiple governors across multiple networks. This also means that in order to execute the same operation twice (on the same governor) the proposer will have to change the description in order to avoid proposal id conflicts."
      },
      "name()": {
        "details": "See {IGovernor-name}."
      },
      "onERC1155BatchReceived(address,address,uint256[],uint256[],bytes)": {
        "details": "See {IERC1155Receiver-onERC1155BatchReceived}."
      },
      "onERC1155Received(address,address,uint256,uint256,bytes)": {
        "details": "See {IERC1155Receiver-onERC1155Received}."
      },
      "onERC721Received(address,address,uint256,bytes)": {
        "details": "See {IERC721Receiver-onERC721Received}."
      },
      "proposalDeadline(uint256)": {
        "details": "See {IGovernor-proposalDeadline}."
      },
      "proposalEta(uint256)": {
        "details": "Public accessor to check the eta of a queued proposal"
      },
      "proposalSnapshot(uint256)": {
        "details": "See {IGovernor-proposalSnapshot}."
      },
      "proposalVotes(uint256)": {
        "details": "Accessor to the internal vote counts."
      },
      "queue(address[],uint256[],bytes[],bytes32)": {
        "details": "Function to queue a proposal to the timelock."
      },
      "quorumDenominator()": {
        "details": "Returns the quorum denominator. Defaults to 100, but may be overridden."
      },
      "quorumNumerator()": {
        "details": "Returns the current quorum numerator. See {quorumDenominator}."
      },
      "quorumNumerator(uint256)": {
        "details": "Returns the quorum numerator at a specific block number. See {quorumDenominator}."
      },
      "relay(address,uint256,bytes)": {
        "details": "Relays a transaction or function call to an arbitrary target. In cases where the governance executor is some contract other than the governor itself, like when using a timelock, this function can be invoked in a governance proposal to recover tokens or Ether that was sent to the governor contract by mistake. Note that if the executor is simply the governor itself, use of `relay` is redundant."
      },
      "setProposalThreshold(uint256)": {
        "details": "Update the proposal threshold. This operation can only be performed through a governance proposal. Emits a {ProposalThresholdSet} event."
      },
      "setVotingDelay(uint256)": {
        "details": "Update the voting delay. This operation can only be performed through a governance proposal. Emits a {VotingDelaySet} event."
      },
      "setVotingPeriod(uint256)": {
        "details": "Update the voting period. This operation can only be performed through a governance proposal. Emits a {VotingPeriodSet} event."
      },
      "timelock()": {
        "details": "Public accessor to check the address of the timelock"
      },
      "updateQuorumNumerator(uint256)": {
        "details": "Changes the quorum numerator. Emits a {QuorumNumeratorUpdated} event. Requirements: - Must be called through a governance proposal. - New numerator must be smaller or equal to the denominator."
      },
      "updateTimelock(address)": {
        "details": "Public endpoint to update the underlying timelock instance. Restricted to the timelock itself, so updates must be proposed, scheduled, and executed through governance proposals. CAUTION: It is not recommended to change the timelock while there are other queued governance proposals."
      },
      "version()": {
        "details": "See {IGovernor-version}."
      }
    },
    "version": 1
  },
  "userdoc": {
    "kind": "user",
    "methods": {},
    "version": 1
  },
  "storageLayout": {
    "storage": [
      {
        "astId": 452,
        "contract": "contracts/governance_standard/GovernorContract.sol:GovernorContract",
        "label": "_name",
        "offset": 0,
        "slot": "0",
        "type": "t_string_storage"
      },
      {
        "astId": 457,
        "contract": "contracts/governance_standard/GovernorContract.sol:GovernorContract",
        "label": "_proposals",
        "offset": 0,
        "slot": "1",
        "type": "t_mapping(t_uint256,t_struct(ProposalCore)450_storage)"
      },
      {
        "astId": 460,
        "contract": "contracts/governance_standard/GovernorContract.sol:GovernorContract",
        "label": "_governanceCall",
        "offset": 0,
        "slot": "2",
        "type": "t_struct(Bytes32Deque)8038_storage"
      },
      {
        "astId": 3125,
        "contract": "contracts/governance_standard/GovernorContract.sol:GovernorContract",
        "label": "_votingDelay",
        "offset": 0,
        "slot": "4",
        "type": "t_uint256"
      },
      {
        "astId": 3127,
        "contract": "contracts/governance_standard/GovernorContract.sol:GovernorContract",
        "label": "_votingPeriod",
        "offset": 0,
        "slot": "5",
        "type": "t_uint256"
      },
      {
        "astId": 3129,
        "contract": "contracts/governance_standard/GovernorContract.sol:GovernorContract",
        "label": "_proposalThreshold",
        "offset": 0,
        "slot": "6",
        "type": "t_uint256"
      },
      {
        "astId": 2917,
        "contract": "contracts/governance_standard/GovernorContract.sol:GovernorContract",
        "label": "_proposalVotes",
        "offset": 0,
        "slot": "7",
        "type": "t_mapping(t_uint256,t_struct(ProposalVote)2912_storage)"
      },
      {
        "astId": 3728,
        "contract": "contracts/governance_standard/GovernorContract.sol:GovernorContract",
        "label": "_quorumNumerator",
        "offset": 0,
        "slot": "8",
        "type": "t_uint256"
      },
      {
        "astId": 3731,
        "contract": "contracts/governance_standard/GovernorContract.sol:GovernorContract",
        "label": "_quorumNumeratorHistory",
        "offset": 0,
        "slot": "9",
        "type": "t_struct(History)4405_storage"
      },
      {
        "astId": 3308,
        "contract": "contracts/governance_standard/GovernorContract.sol:GovernorContract",
        "label": "_timelock",
        "offset": 0,
        "slot": "10",
        "type": "t_contract(TimelockController)2891"
      },
      {
        "astId": 3312,
        "contract": "contracts/governance_standard/GovernorContract.sol:GovernorContract",
        "label": "_timelockIds",
        "offset": 0,
        "slot": "11",
        "type": "t_mapping(t_uint256,t_bytes32)"
      }
    ],
    "types": {
      "t_address": {
        "encoding": "inplace",
        "label": "address",
        "numberOfBytes": "20"
      },
      "t_array(t_struct(Checkpoint)4400_storage)dyn_storage": {
        "base": "t_struct(Checkpoint)4400_storage",
        "encoding": "dynamic_array",
        "label": "struct Checkpoints.Checkpoint[]",
        "numberOfBytes": "32"
      },
      "t_bool": {
        "encoding": "inplace",
        "label": "bool",
        "numberOfBytes": "1"
      },
      "t_bytes32": {
        "encoding": "inplace",
        "label": "bytes32",
        "numberOfBytes": "32"
      },
      "t_contract(TimelockController)2891": {
        "encoding": "inplace",
        "label": "contract TimelockController",
        "numberOfBytes": "20"
      },
      "t_int128": {
        "encoding": "inplace",
        "label": "int128",
        "numberOfBytes": "16"
      },
      "t_mapping(t_address,t_bool)": {
        "encoding": "mapping",
        "key": "t_address",
        "label": "mapping(address => bool)",
        "numberOfBytes": "32",
        "value": "t_bool"
      },
      "t_mapping(t_int128,t_bytes32)": {
        "encoding": "mapping",
        "key": "t_int128",
        "label": "mapping(int128 => bytes32)",
        "numberOfBytes": "32",
        "value": "t_bytes32"
      },
      "t_mapping(t_uint256,t_bytes32)": {
        "encoding": "mapping",
        "key": "t_uint256",
        "label": "mapping(uint256 => bytes32)",
        "numberOfBytes": "32",
        "value": "t_bytes32"
      },
      "t_mapping(t_uint256,t_struct(ProposalCore)450_storage)": {
        "encoding": "mapping",
        "key": "t_uint256",
        "label": "mapping(uint256 => struct Governor.ProposalCore)",
        "numberOfBytes": "32",
        "value": "t_struct(ProposalCore)450_storage"
      },
      "t_mapping(t_uint256,t_struct(ProposalVote)2912_storage)": {
        "encoding": "mapping",
        "key": "t_uint256",
        "label": "mapping(uint256 => struct GovernorCountingSimple.ProposalVote)",
        "numberOfBytes": "32",
        "value": "t_struct(ProposalVote)2912_storage"
      },
      "t_string_storage": {
        "encoding": "bytes",
        "label": "string",
        "numberOfBytes": "32"
      },
      "t_struct(BlockNumber)4983_storage": {
        "encoding": "inplace",
        "label": "struct Timers.BlockNumber",
        "members": [
          {
            "astId": 4982,
            "contract": "contracts/governance_standard/GovernorContract.sol:GovernorContract",
            "label": "_deadline",
            "offset": 0,
            "slot": "0",
            "type": "t_uint64"
          }
        ],
        "numberOfBytes": "32"
      },
      "t_struct(Bytes32Deque)8038_storage": {
        "encoding": "inplace",
        "label": "struct DoubleEndedQueue.Bytes32Deque",
        "members": [
          {
            "astId": 8031,
            "contract": "contracts/governance_standard/GovernorContract.sol:GovernorContract",
            "label": "_begin",
            "offset": 0,
            "slot": "0",
            "type": "t_int128"
          },
          {
            "astId": 8033,
            "contract": "contracts/governance_standard/GovernorContract.sol:GovernorContract",
            "label": "_end",
            "offset": 16,
            "slot": "0",
            "type": "t_int128"
          },
          {
            "astId": 8037,
            "contract": "contracts/governance_standard/GovernorContract.sol:GovernorContract",
            "label": "_data",
            "offset": 0,
            "slot": "1",
            "type": "t_mapping(t_int128,t_bytes32)"
          }
        ],
        "numberOfBytes": "64"
      },
      "t_struct(Checkpoint)4400_storage": {
        "encoding": "inplace",
        "label": "struct Checkpoints.Checkpoint",
        "members": [
          {
            "astId": 4397,
            "contract": "contracts/governance_standard/GovernorContract.sol:GovernorContract",
            "label": "_blockNumber",
            "offset": 0,
            "slot": "0",
            "type": "t_uint32"
          },
          {
            "astId": 4399,
            "contract": "contracts/governance_standard/GovernorContract.sol:GovernorContract",
            "label": "_value",
            "offset": 4,
            "slot": "0",
            "type": "t_uint224"
          }
        ],
        "numberOfBytes": "32"
      },
      "t_struct(History)4405_storage": {
        "encoding": "inplace",
        "label": "struct Checkpoints.History",
        "members": [
          {
            "astId": 4404,
            "contract": "contracts/governance_standard/GovernorContract.sol:GovernorContract",
            "label": "_checkpoints",
            "offset": 0,
            "slot": "0",
            "type": "t_array(t_struct(Checkpoint)4400_storage)dyn_storage"
          }
        ],
        "numberOfBytes": "32"
      },
      "t_struct(ProposalCore)450_storage": {
        "encoding": "inplace",
        "label": "struct Governor.ProposalCore",
        "members": [
          {
            "astId": 442,
            "contract": "contracts/governance_standard/GovernorContract.sol:GovernorContract",
            "label": "voteStart",
            "offset": 0,
            "slot": "0",
            "type": "t_struct(BlockNumber)4983_storage"
          },
          {
            "astId": 445,
            "contract": "contracts/governance_standard/GovernorContract.sol:GovernorContract",
            "label": "voteEnd",
            "offset": 0,
            "slot": "1",
            "type": "t_struct(BlockNumber)4983_storage"
          },
          {
            "astId": 447,
            "contract": "contracts/governance_standard/GovernorContract.sol:GovernorContract",
            "label": "executed",
            "offset": 0,
            "slot": "2",
            "type": "t_bool"
          },
          {
            "astId": 449,
            "contract": "contracts/governance_standard/GovernorContract.sol:GovernorContract",
            "label": "canceled",
            "offset": 1,
            "slot": "2",
            "type": "t_bool"
          }
        ],
        "numberOfBytes": "96"
      },
      "t_struct(ProposalVote)2912_storage": {
        "encoding": "inplace",
        "label": "struct GovernorCountingSimple.ProposalVote",
        "members": [
          {
            "astId": 2903,
            "contract": "contracts/governance_standard/GovernorContract.sol:GovernorContract",
            "label": "againstVotes",
            "offset": 0,
            "slot": "0",
            "type": "t_uint256"
          },
          {
            "astId": 2905,
            "contract": "contracts/governance_standard/GovernorContract.sol:GovernorContract",
            "label": "forVotes",
            "offset": 0,
            "slot": "1",
            "type": "t_uint256"
          },
          {
            "astId": 2907,
            "contract": "contracts/governance_standard/GovernorContract.sol:GovernorContract",
            "label": "abstainVotes",
            "offset": 0,
            "slot": "2",
            "type": "t_uint256"
          },
          {
            "astId": 2911,
            "contract": "contracts/governance_standard/GovernorContract.sol:GovernorContract",
            "label": "hasVoted",
            "offset": 0,
            "slot": "3",
            "type": "t_mapping(t_address,t_bool)"
          }
        ],
        "numberOfBytes": "128"
      },
      "t_uint224": {
        "encoding": "inplace",
        "label": "uint224",
        "numberOfBytes": "28"
      },
      "t_uint256": {
        "encoding": "inplace",
        "label": "uint256",
        "numberOfBytes": "32"
      },
      "t_uint32": {
        "encoding": "inplace",
        "label": "uint32",
        "numberOfBytes": "4"
      },
      "t_uint64": {
        "encoding": "inplace",
        "label": "uint64",
        "numberOfBytes": "8"
      }
    }
  }
}